:020000040800F2
:10000000900400206501000829120008271200084A
:1000100000000000000000000000000000000000E0
:100020000000000000000000000000002D12000889
:1000300000000000000000002B1200082F12000832
:1000400077010008770100087701000877010008B0
:100050007701000877010008D7030008770100083E
:100060007701000877010008770100087701000890
:100070007701000877010008770100087701000880
:100080009112000877010008770100087701000845
:100090007701000877010008770100087701000860
:1000A0007701000877010008770100087701000850
:1000B0007701000877010008770100087701000840
:1000C00000F002F800F03EF80CA030C80838241800
:1000D0002D18671EA246AB4654465D46AC4201D180
:1000E00000F030F87E460F3EB6460FCC0126334274
:1000F00000D0FB1A3343A246AB461847F414000065
:1001000014150000103A02D378C878C1FAD8520703
:1001100001D330C830C101D504680C6070470000BD
:100120000023002400250026103A01D378C1FBD813
:10013000520700D330C100D50B6070471FB51FBDFB
:1001400010B510BD03488546FFF7F8FF01F0A6F88B
:1001500000F032F99004002003B4FFF7F1FF03BC74
:1001600000F032F90448804704480047FEE7FEE704
:10017000FEE7FEE7FEE7FEE739120008C1000008CF
:1001800001E004C0091F0429FBD28B0701D50280BE
:10019000801CC90700D00270704700290BD0C3072C
:1001A00002D00270401C491E022904D3830702D5E5
:1001B0000280801C891EE3E70022EEE70022DFE7D1
:1001C000002203098B4273D3030A8B4258D3030BDB
:1001D0008B423CD3030C8B4221D312E003460B43EA
:1001E0007FD4002243088B4274D303098B425FD330
:1001F000030A8B4244D3030B8B4228D3030C8B425C
:100200000DD30902FF2212BA030C8B4202D3121241
:10021000090265D0030B8B4219D300E0090AC30B16
:100220008B4201D3CB03C01A5241830B8B4201D3C3
:100230008B03C01A5241430B8B4201D34B03C01AAC
:100240005241030B8B4201D30B03C01A5241C30A24
:100250008B4201D3CB02C01A5241830A8B4201D395
:100260008B02C01A5241430A8B4201D34B02C01A7F
:100270005241030A8B4201D30B02C01A5241CDD224
:10028000C3098B4201D3CB01C01A524183098B426F
:1002900001D38B01C01A524143098B4201D34B0158
:1002A000C01A524103098B4201D30B01C01A5241BB
:1002B000C3088B4201D3CB00C01A524183088B4242
:1002C00001D38B00C01A524143088B4201D34B002B
:1002D000C01A5241411A00D201465241104670479D
:1002E0005DE0CA0F00D04942031000D340425340A2
:1002F0009C46002203098B422DD3030A8B4212D362
:100300008901FC2212BA030A8B420CD38901921193
:100310008B4208D3890192118B4204D389013AD0D0
:10032000921100E08909C3098B4201D3CB01C01AA5
:10033000524183098B4201D38B01C01A52414309B8
:100340008B4201D34B01C01A524103098B4201D3A6
:100350000B01C01A5241C3088B4201D3CB00C01A13
:10036000524183088B4201D38B00C01A5241D9D22B
:1003700043088B4201D34B00C01A5241411A00D2AC
:1003800001465241104663465B1001D34042002BA8
:1003900000D54942704763465B1000D3404201B527
:1003A0000449002802DC491C084000E00846C04619
:1003B000C04602BDFFFFFF7F10B50446C046C046E1
:1003C0002046FFF7C9FE10BD01491820ABBEFEE76D
:1003D00026000200704780B5042000F041F8082094
:1003E00000F03EF880BD000010B5044600F00CF9A6
:1003F000082C0ED0042C20D1164C06CC0023083C2F
:10040000401A194691413222101A8B4115DA012007
:100410000BE0104C0CCC0021083C801A0A469A4193
:1004200033388A4109DB0834C8430B490A6810187D
:10043000086000F0E9F8002103C407480268074992
:100440008A4201DD002103E00268002A00D410BDC9
:10045000016010BD38000020000000200F270000C0
:1004600080B504490A68024202D00860FFF7BCFF69
:1004700080BDC04614040140F0B589B00F46034664
:100480005948834204D005203C68002C05D1A9E0DE
:1004900004203C68002C00D1A4E01721C9065A189A
:1004A0000A21CA410092042A00D3009001200025AD
:1004B00007950390024604970CE02143F1603C68E5
:1004C0002046D040AD1C0799091D0791521C0028F9
:1004D00000D187E0501E039E069086403440EED047
:1004E00005920194796810200843122810D13C46E7
:1004F0001C20079908400F218140069AD708BF00A9
:10050000DF193A6A8A43216981401143396261687F
:10051000032208461040A8400292AA401F68974351
:1005200007431F60D043122914D801228A40304C5F
:1005300022420FD09A6802401C46049BDF68234683
:10054000AF401743A7600A09069CA2405F68B74303
:1005500017435F60DA680240049FB868A840104300
:10056000D860C800059AAAD5474A106801210843F7
:1005700010601068084008900C20079908400F216F
:100580008140069C029A9443089A1A4EA2598A43C3
:10059000009981401143A151144E31687868C2031B
:1005A0000CD5019C21433160716882030CD4A143B6
:1005B0007160B168C2020CD4A1430BE0019CA1435D
:1005C000316071688203F2D521437160B168C20263
:1005D000F2D52143059AB160F168800200D56CE73D
:1005E000A1436BE709B0F0BD0010004800040140D2
:1005F0000600060008000140002A02D0182281509F
:100600007047282281507047044800687047C046F0
:1006100002480168491C01607047C04688000020FC
:1006200010B59348016810220A4302600024204656
:1006300000F004F800F014F8204610BDB0B50446F0
:1006400000F026F97D21C90000F0BEFE00F05AFB43
:100650000025E84321462A4600F022F82846B0BD8E
:1006600082B009480168012211430160016811400C
:1006700001910199110742680A43426040680840AD
:100680000090009802B07047181002401F210140EE
:1006900001208840014908607047C04600E100E041
:1006A000002805D40322034693430B4A9A1806E018
:1006B0000F220240083A03239A43084BD2188007BE
:1006C000C00E8901C9B28140FF238340106898435E
:1006D000084310607047C04600E400E01CED00E0F5
:1006E000F0B581B00D460446614A11680120014011
:1006F000A94208D211680126B1432943116011684B
:100700003140A94244D121688A0706D5594E326842
:10071000F0239A43A36813433360C90721D1544996
:10072000086801263040A84205D90868B04308602F
:100730000868C0072CD12078400707D507200002A1
:100740004C4A11688143E0680843106049480468D6
:100750002007810F4948022979D3032962D14848EB
:1007600075E06168434A032909D0121F02290BD0A2
:10077000012910D112689203064609D50FE0126BC9
:10078000D203064604D50AE012689201064606D452
:10079000304601B0F0BD126892070646F8D5354ADA
:1007A00010680326B04308431060FFF72DFF07468B
:1007B0006068012822D002282DD003280CD12D48B2
:1007C00000680C2101400C29A9D0FFF71DFFC01BB8
:1007D00029498842F3D9DBE7264800680007800FE3
:1007E0009DD0FFF711FFC01B23498842F4D9CFE702
:1007F000FFF70AFFC01B20498842C9D81D4800687E
:100800000C2101400429F3D189E7FFF7FDFEC01B4D
:1008100019498842BCD8174800680C2101400829B2
:10082000F3D17CE70321C90322460A408A4200D162
:1008300013481049896A0F220A401249895C00F066
:10084000C3FD0146A002000F0F4A105C484309494E
:1008500009680906090F0D4A515CC8400E49086035
:1008600000263046FFF7EAFE304601B0F0BDC04634
:1008700000200240041002408813000000127A0099
:10088000006CDC02DE150008CE150008BE1500085D
:10089000014800687047C04630000020F0B585B0C0
:1008A00007460078C007F94E039719D071680C20ED
:1008B000014004290DD071680140082900D0BDE035
:1008C0000320C0037168014001200004814200D070
:1008D000B4E03068800303D57868002800D110E1C7
:1008E000387880071ED570680007800F0CD07068BC
:1008F0000C210140082978D10320C0037168014010
:100900000120C003814270D13068800703D5F868A8
:10091000012800D0F5E03068F82188433969C90022
:10092000014331603878000724D43878400736D442
:100930003878C00600D4BDE003984069411D00D15D
:10094000ACE0012800D0FBE0706B0421014371632F
:10095000706B012101437163FFF756FE0546706B12
:10096000800700D59EE0FFF74FFE411B03200229C0
:10097000F5D9BDE1706AF96900296BD001210843FE
:100980007062FFF741FE0546706A8007CDD4FFF71D
:100990003BFE401B0228F7D9032005B0F0BD012023
:1009A00002900107F0690840019006D1F069084300
:1009B000F061F0690840049004980091CF4F3868C6
:1009C000C00527D402980402386820433860FFF736
:1009D0001BFE0546386820421CD1FFF715FE401B60
:1009E0006428F7D9032005B0F0BD3068F968002904
:1009F00042D0012108433060FFF706FE054630680B
:100A0000800788D4FFF700FE401B0228F7D9032097
:100A100005B0F0BD03988068B94F002800D1B9E057
:100A2000052800D1CBE0012800D1CCE0306A029942
:100A300088433062306A04218843C7E07868002820
:100A400000D1DCE0052800D1F2E0012800D0F8E078
:100A50000120F2E0012188437062FFF7D5FD0546D1
:100A6000706A800700D460E7FFF7CEFD401B0228C4
:100A7000F6D9032005B0F0BD012188433060FFF7AF
:100A8000C3FD05463068800700D44BE7FFF7BCFD87
:100A9000401B0228F6D9032005B0F0BD706B04217D
:100AA00088437063706BF821884303998969C90092
:100AB0000143716303980078800618D572680C2191
:100AC0000A40012007040C2A09D072680A40082A4B
:100AD0004BD10321C90372680A408A4245D1716B28
:100AE000394204D00399096A012900D000E1039832
:100AF000476A0022002F07D070680C2101400829A6
:100B000005D1012005B0F0BD104605B0F0BD029240
:100B1000012421063068019188433060FFF774FD9D
:100B20000546022F00D0A6E067063068384200D1A3
:100B3000BEE0FFF769FD411B03200229F5D9D7E08C
:100B4000706B042101437163706B012188437063F2
:100B5000FFF75AFD0546706B8007ABD5FFF754FDD4
:100B6000411B03200229F6D9C2E0706B0399096A80
:100B7000002900D18CE038437063FFF745FD05463E
:100B8000706B3842B3D1FFF73FFD411B03200229B0
:100B9000F6D9ADE0306A029988433062306A0421A8
:100BA00088433062FFF730FD0546306A80071CD568
:100BB000FFF72AFD411B0320B942F6D998E0306ABD
:100BC000042101433162306A029908433062FFF721
:100BD0001BFD0546306A800707D4FFF715FD401B53
:100BE000B842F7D9032005B0F0BD01980028039F53
:100BF00000D09DE6F06900998843F06198E60120F5
:100C0000010432688A433260810432688A43326068
:100C10004404FFF7F9FC0546039F3068204200D1E9
:100C20005EE6FFF7F1FC411B03206429F5D95FE084
:100C30000120810432680A433260010430680843AD
:100C400007E00120010432688A4332608104306881
:100C50008843306001204404FFF7D6FC0546306825
:100C6000204200D03CE6FFF7CFFC401B6428F6D9B9
:100C7000032005B0F0BD6406306820423AD0FFF78B
:100C8000C3FC411B03200329F6D331E000100240CE
:100C9000B8437063FFF7B8FC0546706B384200D16B
:100CA00025E7FFF7B1FC411B03200229F5D91FE01E
:100CB000F06A0F218843039A116B0143F1627B2094
:100CC000C00371688143D06A0843916A014371602F
:100CD0003068019908433060FFF796FC044630689D
:100CE000384207D1FFF790FC011B03200229F6D9F7
:100CF00005B0F0BD029805B0F0BDC04600700040E0
:100D000088130000401E010E01D0012070470749E2
:100D1000074A5060074803680B40032189075918A8
:100D2000016000209060072111607047FFFFFF0005
:100D300010E000E020ED00E07047704710B53C2265
:100D4000825C012A01D1022010BD02463C320223FE
:100D50005370006843687024A34343600B68446881
:100D60001C43446083688024A3438360496883688C
:100D70000B438360002010700121517010BD0000F2
:100D800070B5002829D0044605463C35687800280F
:100D900004D100202870204600F066F80220687018
:100DA0002068066801218B07984205D0264A9042A8
:100DB00002D03B4A904219D170229643A268324336
:100DC000224EB04216DD224B984208DC1E4B984260
:100DD00018D0224B984215D033E0012070BD1D4B36
:100DE00098420FD01C4B98420CD02AE03246174E46
:100DF000B042E8DC984205D0294B984202D0184B0B
:100E000098421ED103231B029A4323691343802275
:100E10009343A2691A430260E268C2626268826216
:100E2000104A82180A23DA41072A06D80B46934053
:100E3000E122134201D062690263416169700020BE
:100E400070BD1346E3E7C046002C0140FF2B014074
:100E5000FF43014000480140004401400040014080
:100E60000020004000D4FEBF10B582B00068EB49FE
:100E7000884201D002B010BD0A4801680222114325
:100E80000160006810400190019810240021204664
:100E90000A46FFF705FC2046FFF7F8FB02B010BD3D
:100EA000000400401C1002400068C1680122114388
:100EB000C1600168114301600020704770B53C2299
:100EC000825C012A01D1022070BD02463C3202231D
:100ED0005370524C2346773B006885681D408560FF
:100EE0000B684F2B1EDC1F2B2ADD202B4ED0302B06
:100EF00051D0402B00D08BE0036A046A0125AC433B
:100F000004628469F025AC43CD682D0125438561D9
:100F10000A24A3434968194301628368472119439E
:100F2000302373E06F2B14DD702B39D001256E0355
:100F3000B34243D029038B426AD18168072365E01D
:100F4000002B49D0102B63D18368172119436023EC
:100F50005CE0502B45D0602B5AD11023DB43046A50
:100F60001C4004620F2424038569A543CC68240334
:100F70002C43056A8461A024A543496809012943DB
:100F80000162846867212143194040E0836827217A
:100F9000194350233AE0836837211943402335E051
:100FA000836823404C688D68C9682543090229433A
:100FB0001943816083687721194328E083682340BF
:100FC0004C688E68C9682643090231431943816021
:100FD000AB03816819431AE0836807211943702322
:100FE00014E0036A046A0125AC4304628469F025B5
:100FF000AC43CD682D01254385610A24A34349688C
:101000001943016283685721194320239943816062
:10101000002010700121517070BDC046FF00FFFF1D
:101020007047B0B504468020C54320680169890730
:1010300017D5C168890714D529467E310161012180
:1010400021778069800703D02046FFF7E9FF05E09C
:10105000204600F08AF8204600F088F8002020772B
:1010600020680169490718D5C168490715D529467F
:101070007C3101610221217780698005800F03D0D6
:101080002046FFF7CDFF05E0204600F06EF8204631
:1010900000F06CF80020207720680169090717D557
:1010A000C168090714D529467831016104212177E7
:1010B000C069800703D02046FFF7B2FF05E0204655
:1010C00000F053F8204600F051F800202077206807
:1010D0000169C90618D5C168C90615D529467031F8
:1010E000016108212177C0698005800F03D0204667
:1010F000FFF796FF05E0204600F037F8204600F0A5
:1011000035F80020207720680169C90709D0C16837
:10111000C90706D029467F310161204600F028F832
:1011200020680169090607D5C168090604D505616B
:101130002046FFF701FE20680169490609D5C1680C
:10114000490606D5294640310161204600F06AF87B
:1011500020680169890607D5C168890604D560350C
:1011600005612046FFF7E9FDB0BD704770470000FC
:10117000F0B585B000689349884201D005B0F0BD54
:10118000274E30687D21C90000F040F90490306896
:10119000642100F03BF90A242146FFF71FF8039170
:1011A0003068214600F032F92146FFF717F8029126
:1011B00030682146FFF712F801910F2001027D48A7
:1011C00001252A46FFF718FAFF2007027848002475
:1011D00039462246FFF710FA28027168884081B22A
:1011E00074482246FFF708FA714839462246FFF74D
:1011F00003FA7068800001A908588000301801893E
:101200006B482A46FFF7F8F97068401C70607068F8
:101210000428B3DB746005B0F0BDC0460004004094
:10122000000000207047FEE770477047704780B5A8
:10123000FFF7EEF980BD00001148026801210A4362
:10124000026042680F4B1340436002680E4B13402C
:1012500003608A040368934303603F2212044368D7
:1012600093434360C26A0F239A43C262026B074BE7
:1012700013400363426B8A434263002181607047DD
:10128000001002400CB8FF08FFFFF6FE2CFEFCFF2A
:1012900080B54A48FFF7C5FE80BDC04694B0FFF751
:1012A000BFF907AE301D3021FEF788FF00251095ED
:1012B00001240F94202007903046FFF7EFFA0595A0
:1012C0000495032003900726029602A82146FFF703
:1012D00007FA0B950A95E00434490A6802430A604C
:1012E0000A68024002920298A0040A6802430A6057
:1012F0000968014002910298FF20010201912C48E7
:101300002A46FFF779F90F2007022A4839462A466C
:10131000FFF772F9099508957003079007AE254805
:101320003146FFF7A9F80995234808900C2007904B
:101330001F483146FFF7A0F80A95099508940198CF
:1013400007901B483146FFF797F80A9509950894CE
:10135000079718483146FFF78FF80626304629468A
:101360002A46FFF79DF93046FFF790F9134EB56115
:1013700002201349134A32607160B560F060356134
:101380000A9509950895039502953046FFF7F8FCF4
:101390002003079007A93046FFF790FD02A93046C9
:1013A000FFF7CCFC3046FFF77FFDFEE7141002404C
:1013B0000004004800080048000011104800002008
:1013C0007FBB00000004004043088B421AD3002278
:1013D00003098B4279D3030A8B425ED3030B8B4202
:1013E00042D3030C8B4227D30902FF2212BA030C0B
:1013F0008B4202D31212090203D0030B8B4233D368
:101400001AE0D3E0411A8041401C704703460B4369
:1014100071D443088B42F5D3002203098B4254D385
:10142000030A8B4239D3030B8B421DD3030C8B422F
:1014300002D394466EE0090AC30B8B4201D3CB035F
:10144000C01A5241830B8B4201D38B03C01A524105
:10145000430B8B4201D34B03C01A5241030B8B4207
:1014600001D30B03C01A5241C30A8B4201D3CB02F2
:10147000C01A5241830A8B4201D38B02C01A5241D7
:10148000430A8B4201D34B02C01A5241030A8B42DA
:1014900001D30B02C01A5241CDD2C3098B4201D3F2
:1014A000CB01C01A524183098B4201D38B01C01A70
:1014B000524143098B4201D34B01C01A52410309E7
:1014C0008B4201D30B01C01A5241C3088B4201D396
:1014D000CB00C01A524183088B4201D38B00C01A43
:1014E000524143088B4201D34B00C01A5241411A6A
:1014F000524110007047CA0F00D04942031000D378
:101500004042534000229C4603098B422DD3030ADC
:101510008B4212D38901FC2212BA030A8B420CD3EC
:10152000890192118B4208D3890192118B4204D315
:10153000890137D0921100E08909C3098B4201D398
:10154000CB01C01A524183098B4201D38B01C01ACF
:10155000524143098B4201D34B01C01A5241030946
:101560008B4201D30B01C01A5241C3088B4201D3F5
:10157000CB00C01A524183088B4201D38B00C01AA2
:101580005241D9D243088B4201D34B00C01A524179
:10159000411A00D201465241104663465B1000D307
:1015A0004042704763465B1000D3404201B50021C2
:1015B000004201D0C9430846C046C04602BD0000F3
:1015C00000000000000001020304060708090203EE
:1015D0000405060708090A0B0C0D0E0F1010010276
:1015E000030405060708090A0B0C0D0E0F10000076
:1015F0001016000800000020380000000401000858
:101600004816000838000020580400002001000897
:101610000B2700000100000000FC0000006000003B
:1016200000DA000000F200000066000000B60000D2
:1016300000BE000000E0000000FE000000E6000028
:0816400000127A000000000016
:04000005080000C12E
:00000001FF
