:020000040800F2
:1000000078040020D50000085F0D00085D0D000891
:1000100000000000000000000000000000000000E0
:10002000000000000000000000000000630D000858
:100030000000000000000000610D0008650D0008D0
:10004000E7000008E7000008E7000008E7000008F4
:10005000E7000008E700000879010008E700000851
:10006000E7000008E7000008E7000008E7000008D4
:10007000E7000008E7000008E7000008E7000008C4
:10008000E7000008E7000008E7000008E7000008B4
:10009000E7000008E7000008E7000008E7000008A4
:1000A000E7000008E7000008E7000008E700000894
:1000B000E7000008E7000008E7000008E700000884
:1000C0000348854600F046F800480047C50D000883
:1000D000780400200448804704480047FEE7FEE714
:1000E000FEE7FEE7FEE7FEE76D0D0008C100000831
:1000F000D2B201E00270401C491EFBD270470022C0
:10010000F6E710B513460A4604461946FFF7F0FF16
:10011000204610BD70B50446002903D000202022DF
:10012000012310E0002801D00020C043C046C04693
:100130000DE02546D5408D4205D30D469540641B04
:100140001D46954040191546521E002DF1DC2146F2
:1001500070BD0000064C0125064E05E0E36807CCA3
:100160002B430C3C98471034B442F7D3FFF7ACFF55
:100170002C1100084C11000880B5042000F024F870
:10018000082000F021F880BDB0B582B0019000F0E9
:10019000EFF804460198451C01D30020C54300F048
:1001A000E7F8001BA842FAD302B0B0BD042804D07F
:1001B000082805D10348401C00E0024801210170D5
:1001C0007047C0463000002080B504490A680242EA
:1001D00002D00860FFF7EAFF80BDC046140401406A
:1001E000F0B589B00F4603465948834204D0052034
:1001F0003C68002C05D1A9E004203C68002C00D10B
:10020000A4E01721C9065A180A21CA410092042AFB
:1002100000D3009001200025079503900246049723
:100220000CE02143F1603C682046D040AD1C0799AA
:10023000091D0791521C002800D187E0501E039E23
:10024000069086403440EED00592019479681020E3
:100250000843122810D13C461C20079908400F2162
:100260008140069AD708BF00DF193A6A8A4321699C
:100270008140114339626168032208461040A8405A
:100280000292AA401F68974307431F60D043122978
:1002900014D801228A40304C22420FD09A68024082
:1002A0001C46049BDF682346AF401743A7600A093A
:1002B000069CA2405F68B74317435F60DA6802405C
:1002C000049FB868A8401043D860C800059AAAD512
:1002D000474A1068012108431060106808400890E0
:1002E0000C20079908400F218140069C029A9443F4
:1002F000089A1A4EA2598A43009981401143A1518C
:10030000144E31687868C2030CD5019C21433160DA
:10031000716882030CD4A1437160B168C2020CD42D
:10032000A1430BE0019CA143316071688203F2D5C7
:1003300021437160B168C202F2D52143059AB160D0
:10034000F168800200D56CE7A1436BE709B0F0BD0E
:1003500000100048000401400600060008000140AB
:10036000002A02D0182281507047282281507047FD
:10037000044800687047C04602480168491C016093
:100380007047C0467400002010B5934801681022E1
:100390000A4302600024204600F004F800F014F83C
:1003A000204610BDB0B5044600F026F97D21C900F5
:1003B000FFF7B0FE00F05AFB0025E84321462A462D
:1003C00000F022F82846B0BD82B009480168012239
:1003D00011430160016811400191019911074268C0
:1003E0000A434260406808400090009802B070479D
:1003F000181002401F210140012088400149086077
:100400007047C04600E100E0002805D403220346FF
:1004100093430B4A9A1806E00F220240083A03233E
:100420009A43084BD2188007C00E8901C9B2814097
:10043000FF23834010689843084310607047C0460C
:1004400000E400E01CED00E0F0B581B00D4604468C
:10045000614A116801200140A94208D211680126B1
:10046000B1432943116011683140A94244D1216848
:100470008A0706D5594E3268F0239A43A36813437E
:100480003360C90721D15449086801263040A84289
:1004900005D90868B04308600868C0072CD12078E7
:1004A000400707D5072000024C4A11688143E068E5
:1004B00008431060494804682007810F4948022911
:1004C00079D3032962D1484875E06168434A03291A
:1004D00009D0121F02290BD0012910D112689203F2
:1004E000064609D50FE0126BD203064604D50AE092
:1004F00012689201064606D4304601B0F0BD12687B
:1005000092070646F8D5354A10680326B0430843DB
:100510001060FFF72DFF07466068012822D00228EF
:100520002DD003280CD12D4800680C2101400C2946
:10053000A9D0FFF71DFFC01B29498842F3D9DBE78B
:10054000264800680007800F9DD0FFF711FFC01BF1
:1005500023498842F4D9CFE7FFF70AFFC01B20499F
:100560008842C9D81D4800680C2101400429F3D1F4
:1005700089E7FFF7FDFEC01B19498842BCD8174820
:1005800000680C2101400829F3D17CE70321C9034D
:1005900022460A408A4200D113481049896A0F2234
:1005A0000A401249895CFFF7B5FD0146A002000F21
:1005B0000F4A105C4843094909680906090F0D4AAA
:1005C000515CC8400E49086000263046FFF7EAFE3D
:1005D000304601B0F0BDC046002002400410024089
:1005E0008813000000127A00006CDC021A11000867
:1005F0000A110008FA100008014800687047C04658
:1006000028000020F0B585B007460078C007F94EF5
:10061000039719D071680C20014004290DD071682E
:100620000140082900D0BDE00320C00371680140EB
:1006300001200004814200D0B4E03068800303D57B
:100640007868002800D110E1387880071ED57068DE
:100650000007800F0CD070680C210140082978D168
:100660000320C003716801400120C003814270D1A2
:100670003068800703D5F868012800D0F5E03068BD
:10068000F82188433969C90001433160387800078F
:1006900024D43878400736D43878C00600D4BDE07A
:1006A00003984069411D00D1ACE0012800D0FBE077
:1006B000706B042101437163706B0121014371630D
:1006C000FFF756FE0546706B800700D59EE0FFF7EA
:1006D0004FFE411B03200229F5D9BDE1706AF9697B
:1006E00000296BD0012108437062FFF741FE0546E7
:1006F000706A8007CDD4FFF73BFE401B0228F7D974
:10070000032005B0F0BD012002900107F069084008
:10071000019006D1F0690843F061F0690840049047
:1007200004980091CF4F3868C00527D4029804027E
:10073000386820433860FFF71BFE054638682042C2
:100740001CD1FFF715FE401B6428F7D9032005B024
:10075000F0BD3068F968002942D0012108433060BB
:10076000FFF706FE05463068800788D4FFF700FED5
:10077000401B0228F7D9032005B0F0BD039880681C
:10078000B94F002800D1B9E0052800D1CBE00128FD
:1007900000D1CCE0306A029988433062306A04218B
:1007A0008843C7E07868002800D1DCE0052800D144
:1007B000F2E0012800D0F8E00120F2E001218843B6
:1007C0007062FFF7D5FD0546706A800700D460E7C8
:1007D000FFF7CEFD401B0228F6D9032005B0F0BD7F
:1007E000012188433060FFF7C3FD0546306880076C
:1007F00000D44BE7FFF7BCFD401B0228F6D90320CD
:1008000005B0F0BD706B042188437063706BF821F4
:10081000884303998969C90001437163039800788B
:10082000800618D572680C210A40012007040C2AA2
:1008300009D072680A40082A4BD10321C9037268A3
:100840000A408A4245D1716B394204D00399096A42
:10085000012900D000E10398476A0022002F07D049
:1008600070680C210140082905D1012005B0F0BDB8
:10087000104605B0F0BD02920124210630680191B6
:1008800088433060FFF774FD0546022F00D0A6E0D4
:1008900067063068384200D1BEE0FFF769FD411BB2
:1008A00003200229F5D9D7E0706B0421014371635D
:1008B000706B012188437063FFF75AFD0546706B2A
:1008C0008007ABD5FFF754FD411B03200229F6D961
:1008D000C2E0706B0399096A002900D18CE03843AB
:1008E0007063FFF745FD0546706B3842B3D1FFF7E3
:1008F0003FFD411B03200229F6D9ADE0306A029981
:1009000088433062306A042188433062FFF730FD4B
:100910000546306A80071CD5FFF72AFD411B0320DE
:10092000B942F6D998E0306A042101433162306A55
:10093000029908433062FFF71BFD0546306A8007C5
:1009400007D4FFF715FD401BB842F7D9032005B0C7
:10095000F0BD01980028039F00D09DE6F069009942
:100960008843F06198E60120010432688A433260CE
:10097000810432688A4332604404FFF7F9FC05467B
:10098000039F3068204200D15EE6FFF7F1FC411B77
:1009900003206429F5D95FE00120810432680A430D
:1009A000326001043068084307E001200104326826
:1009B0008A433260810430688843306001204404F7
:1009C000FFF7D6FC05463068204200D03CE6FFF732
:1009D000CFFC401B6428F6D9032005B0F0BD6406A7
:1009E000306820423AD0FFF7C3FC411B03200329A3
:1009F000F6D331E000100240B8437063FFF7B8FC53
:100A00000546706B384200D125E7FFF7B1FC411B6A
:100A100003200229F5D91FE0F06A0F218843039AC9
:100A2000116B0143F1627B20C00371688143D06A7E
:100A30000843916A0143716030680199084330604E
:100A4000FFF796FC04463068384207D1FFF790FC68
:100A5000011B03200229F6D905B0F0BD029805B0AC
:100A6000F0BDC0460070004088130000401E010E1B
:100A700001D0012070470749074A506007480368C2
:100A80000B4003218907591801600020906007215D
:100A900011607047FFFFFF0010E000E020ED00E074
:100AA00010B53C22825C012A01D1022010BD024611
:100AB0003C3202235370006843687024A3434360B0
:100AC0000B6844681C43446083688024A3438360AC
:100AD000496883680B4383600020107001215170C6
:100AE00010BD000070B5002829D0044605463C35ED
:100AF0006878002804D100202870204600F066F8AD
:100B0000022068702068066801218B07984205D092
:100B1000264A904202D0364A904219D1702296431A
:100B2000A2683243224EB04216DD224B984208DCC6
:100B30001E4B984218D0224B984215D033E001202A
:100B400070BD1D4B98420FD01C4B98420CD02AE030
:100B50003246174EB042E8DC984205D0244B98420A
:100B600002D0184B98421ED103231B029A432369DB
:100B7000134380229343A2691A430260E268C2626F
:100B800062688262104A82180A23DA41072A06D86C
:100B90000B469340E122134201D062690263416136
:100BA0006970002070BD1346E3E7C046002C014089
:100BB000FF2B0140FF430140004801400044014039
:100BC000004001400020004000D4FEBF81B000681A
:100BD0000749884201D001B07047064801680222E7
:100BE00011430160006810400090009801B0704708
:100BF000000400401C10024070B53C22825C012AB7
:100C000001D1022070BD02463C3202235370524C87
:100C10002346773B006885681D4085600B684F2B35
:100C20001EDC1F2B2ADD202B4ED0302B51D0402B29
:100C300000D08BE0036A046A0125AC430462846936
:100C4000F025AC43CD682D01254385610A24A343DB
:100C5000496819430162836847211943302373E0CF
:100C60006F2B14DD702B39D001256E03B34243D0B6
:100C700029038B426AD18168072365E0002B49D0A4
:100C8000102B63D183681721194360235CE0502B3C
:100C900045D0602B5AD11023DB43046A1C40046208
:100CA0000F2424038569A543CC6824032C43056ADB
:100CB0008461A024A543496809012943016284682D
:100CC00067212143194040E08368272119435023BD
:100CD0003AE0836837211943402335E08368234095
:100CE0004C688D68C968254309022943194381600E
:100CF00083687721194328E0836823404C688E6815
:100D0000C96826430902314319438160AB038168F6
:100D100019431AE0836807211943702314E0036A1A
:100D2000046A0125AC4304628469F025AC43CD68B4
:100D30002D01254385610A24A343496819430162B3
:100D40008368572119432023994381600020107044
:100D50000121517070BDC046FF00FFFFFEE77047E4
:100D60007047704780B5FFF707FB80BD11480268E8
:100D700001210A43026042680F4B1340436002683E
:100D80000E4B134003608A040368934303603F22C1
:100D90001204436893434360C26A0F239A43C262BA
:100DA000026B074B13400363426B8A43426300218B
:100DB00081607047001002400CB8FF08FFFFF6FE8C
:100DC0002CFEFCFF9AB0FFF7DFFA0DAD281D302195
:100DD000FFF795F9002616960124159420200D9012
:100DE0002846FFF70FFC0B960A960320099007256B
:100DF000089508A82146FFF727FB11961096E104F5
:100E0000AE4802680A43026002680A4008920899E4
:100E1000A10502680A43026002680A400892089924
:100E2000A10402680A43026000680840089008981C
:100E3000FF200702A24839463246FFF791FA0F20F9
:100E4000010207919F483246FFF78AFA0F940E96E7
:100E500028030D900DAD9B482946FFF7C1F90F9669
:100E60000E96E0030D9097482946FFF7B9F90F96C3
:100E700095480E900C200D9091482946FFF7B0F947
:100E800010960F960E9404970D978D482946FFF7FC
:100E9000A7F910960F960E9407980D908948294649
:100EA000FFF79EF90625284631463246FFF7ACFA91
:100EB0002846FFF79FFA854FFE6185487860BE603F
:100EC000FE603E617E6110960F960E96099608961A
:100ED0003D1D2846FFF706FE039420030D900DA943
:100EE0002846FFF789FE08A92846FFF7D9FD79486B
:100EF000001F06900196009695E00A24059430465E
:100F00002146FFF707F9069602904443301B800004
:100F10007149095A6A480646039C2246FFF720FA9F
:100F20002046FFF731F93046049E31462A46FFF746
:100F300017FA6448074607992246FFF711FA61023B
:100F400038462A46FFF70CFA2046FFF71DF95C4F9A
:100F5000384631462A46FFF703FA02980599FFF70B
:100F6000D9F888005C49095A38462246FFF7F8F953
:100F70002046FFF709F9384631462A46FFF7F0F9CF
:100F8000504F384607992246FFF7EAF9A102384642
:100F90002A46FFF7E5F92046FFF7F6F848480746E6
:100FA00031462A46FFF7DCF964210698FFF7B2F8CC
:100FB0000599FFF7AFF888004749095A3846224695
:100FC000FFF7CEF92046FFF7DFF8384631462A46CC
:100FD000FFF7C6F93B4F384607992246FFF7C0F99D
:100FE000E10238462A46FFF7BBF92046FFF7CCF866
:100FF000334F384631462A46FFF7B2F97D20C1000B
:101000000698FFF787F880003349095A3846224688
:10101000FFF7A6F92046FFF7B7F8384631462A46CB
:10102000FFF79EF9294F3878002812D0FFF7A0F972
:1010300000250199401A2946009A91416538A94135
:1010400007DB3D70069F7F1CFFF792F9019000952A
:1010500014E07878002810D0FFF78AF90021019A6F
:10106000801A0A46009B9A4165388A4105DB7970EF
:10107000069F7F1EFFF77CF900E0069F114E304669
:101080000799039C2246FFF76BF9210200253046A1
:101090002A46FFF765F92046FFF776F808480499D5
:1010A0002A46FFF75DF9002F0A4800D4384609495F
:1010B0008F422E4600DD20E706461EE71410024050
:1010C0000004004800080048000011103000002013
:1010D000000400400F2700000000002002E008C8C4
:1010E000121F08C1002AFAD170477047002001E0A2
:1010F00001C1121F002AFBD1704700000000000050
:10110000000001020304060708090203040506079C
:1011100008090A0B0C0D0E0F10100102030405063E
:101120000708090A0B0C0D0E0F10000050110008E3
:101130000000002030000000DC10000880110008D2
:101140003000002048040000EC10000800000000FF
:1011500000FC00000060000000DA000000F2000067
:101160000066000000B6000000BE000000E00000C5
:1011700000FE000000E6000000127A0000000000FF
:04000005080000C12E
:00000001FF
