:020000040800F2
:1000000010040020D5000008570A0008550A00080F
:1000100000000000000000000000000000000000E0
:100020000000000000000000000000005B0A000863
:100030000000000000000000590A00085D0A0008E6
:10004000E7000008E7000008E7000008E7000008F4
:10005000E7000008E7000008E7000008E7000008E4
:10006000E7000008E7000008E7000008E7000008D4
:10007000E7000008E7000008E7000008E7000008C4
:10008000E7000008E7000008E7000008E7000008B4
:10009000E7000008E7000008E7000008E7000008A4
:1000A000E7000008E7000008E7000008E700000894
:1000B000E7000008E7000008E7000008E700000884
:1000C0000348854600F046F800480047BD0A00088E
:1000D000100400200448804704480047FEE7FEE77C
:1000E000FEE7FEE7FEE7FEE7650A0008C10000083C
:1000F000D2B201E00270401C491EFBD270470022C0
:10010000F6E710B513460A4604461946FFF7F0FF16
:10011000204610BD70B50446002903D000202022DF
:10012000012310E0002801D00020C043C046C04693
:100130000DE02546D5408D4205D30D469540641B04
:100140001D46954040191546521E002DF1DC2146F2
:1001500070BD0000064C0125064E05E0E36807CCA3
:100160002B430C3C98471034B442F7D3FFF7ACFF55
:10017000E80C0008080D0008B0B582B0019000F04E
:10018000DBF804460198451C01D30020C54300F06C
:10019000D3F8001BA842FAD302B0B0BDF0B589B0C5
:1001A0000F4603465948834204D005203C68002C82
:1001B00005D1A9E004203C68002C00D1A4E017215F
:1001C000C9065A180A21CA410092042A00D3009095
:1001D0000120002507950390024604970CE0214377
:1001E000F1603C682046D040AD1C0799091D07917D
:1001F000521C002800D187E0501E039E06908640C6
:100200003440EED0059201947968102008431228FA
:1002100010D13C461C20079908400F218140069AC6
:10022000D708BF00DF193A6A8A4321698140114328
:1002300039626168032208461040A8400292AA4031
:100240001F68974307431F60D043122914D8012227
:100250008A40304C22420FD09A6802401C46049BD0
:10026000DF682346AF401743A7600A09069CA240F7
:100270005F68B74317435F60DA680240049FB8685D
:10028000A8401043D860C800059AAAD54A4A106809
:100290000121084310601068084008900C2007995D
:1002A00008400F218140069C029A9443089A1A4EF6
:1002B000A2598A43009981401143A151144E3168DB
:1002C0007868C2030CD5019C2143316071688203B8
:1002D0000CD4A1437160B168C2020CD4A1430BE0FD
:1002E000019CA143316071688203F2D521437160A2
:1002F000B168C202F2D52143059AB160F16880026B
:1003000000D56CE7A1436BE709B0F0BD00100048D1
:100310000004014006000600080001400069084092
:10032000411E88417047002A02D018228150704730
:100330002822815070470000044800687047C0467A
:1003400002480168491C01607047C046080000204F
:1003500010B58E48016810220A430260002420462E
:1003600000F004F800F014F8204610BDB0B50446C3
:1003700000F01CF97D21C900FFF7CCFE00F050FB16
:100380000025E84321462A4600F018F82846B0BD6B
:1003900082B00948016801221143016001681140DF
:1003A00001910199110742680A4342604068084080
:1003B0000090009802B0704718100240002805D441
:1003C0000322034693430B4A9A1806E00F22024089
:1003D000083A03239A43084BD2188007C00E8901BC
:1003E000C9B28140FF2383401068984308431060DE
:1003F0007047C04600E400E01CED00E0F0B581B0BD
:100400000D460446614A116801200140A94208D204
:1004100011680126B1432943116011683140A94296
:1004200044D121688A0706D5594E3268F0239A4391
:10043000A36813433360C90721D1544908680126D2
:100440003040A84205D90868B04308600868C00772
:100450002CD12078400707D5072000024C4A1168AC
:100460008143E06808431060494804682007810F11
:100470004948022979D3032962D1484875E0616867
:10048000434A032909D0121F02290BD0012910D198
:1004900012689203064609D50FE0126BD203064696
:1004A00004D50AE012689201064606D4304601B02F
:1004B000F0BD126892070646F8D5354A1068032643
:1004C000B04308431060FFF737FF07466068012814
:1004D00022D002282DD003280CD12D4800680C21F1
:1004E00001400C29A9D0FFF727FFC01B29498842EA
:1004F000F3D9DBE7264800680007800F9DD0FFF79F
:100500001BFFC01B23498842F4D9CFE7FFF714FF34
:10051000C01B20498842C9D81D4800680C210140F1
:100520000429F3D189E7FFF707FFC01B1949884267
:10053000BCD8174800680C2101400829F3D17CE79A
:100540000321C90322460A408A4200D113481049B8
:10055000896A0F220A401249895CFFF7DBFD0146D8
:10056000A002000F0F4A105C4843094909680906B8
:10057000090F0D4A515CC8400E49086000263046FC
:10058000FFF7F4FE304601B0F0BDC0460020024047
:10059000041002408813000000127A00006CDC0294
:1005A000D80C0008C80C0008B80C00080148006806
:1005B0007047C04600000020F0B585B007460078BF
:1005C000C007F94E039719D071680C200140042927
:1005D0000DD071680140082900D0BDE00320C003A0
:1005E0007168014001200004814200D0B4E030680D
:1005F000800303D57868002800D110E1387880079F
:100600001ED570680007800F0CD070680C21014067
:10061000082978D10320C003716801400120C0037C
:10062000814270D13068800703D5F868012800D076
:10063000F5E03068F82188433969C9000143316029
:100640003878000724D43878400736D43878C00684
:1006500000D4BDE003984069411D00D1ACE0012801
:1006600000D0FBE0706B042101437163706B0121CA
:1006700001437163FFF760FE0546706B800700D58C
:100680009EE0FFF759FE411B03200229F5D9BDE189
:10069000706AF96900296BD0012108437062FFF785
:1006A0004BFE0546706A8007CDD4FFF745FE401B20
:1006B0000228F7D9032005B0F0BD01200290010700
:1006C000F0690840019006D1F0690843F061F069D3
:1006D0000840049004980091CF4F3868C00527D493
:1006E00002980402386820433860FFF725FE05466B
:1006F000386820421CD1FFF71FFE401B6428F7D941
:10070000032005B0F0BD3068F968002942D001210E
:1007100008433060FFF710FE05463068800788D434
:10072000FFF70AFE401B0228F7D9032005B0F0BDF1
:1007300003988068B94F002800D1B9E0052800D19E
:10074000CBE0012800D1CCE0306A029988433062C6
:10075000306A04218843C7E07868002800D1DCE0D3
:10076000052800D1F2E0012800D0F8E00120F2E0F5
:10077000012188437062FFF7DFFD0546706A80073C
:1007800000D460E7FFF7D8FD401B0228F6D903200C
:1007900005B0F0BD012188433060FFF7CDFD05466F
:1007A0003068800700D44BE7FFF7C6FD401B0228E6
:1007B000F6D9032005B0F0BD706B04218843706347
:1007C000706BF821884303998969C90001437163FB
:1007D00003980078800618D572680C210A40012021
:1007E00007040C2A09D072680A40082A4BD1032159
:1007F000C90372680A408A4245D1716B394204D0FC
:100800000399096A012900D000E10398476A002290
:10081000002F07D070680C210140082905D1012064
:1008200005B0F0BD104605B0F0BD029201242106CE
:100830003068019188433060FFF77EFD0546022F46
:1008400000D0A6E067063068384200D1BEE0FFF76E
:1008500073FD411B03200229F5D9D7E0706B0421F9
:1008600001437163706B012188437063FFF764FD7E
:100870000546706B8007ABD5FFF75EFD411B03207B
:100880000229F6D9C2E0706B0399096A002900D1E8
:100890008CE038437063FFF74FFD0546706B3842BC
:1008A000B3D1FFF749FD411B03200229F6D9ADE082
:1008B000306A029988433062306A0421884330628A
:1008C000FFF73AFD0546306A80071CD5FFF734FD77
:1008D000411B0320B942F6D998E0306A0421014354
:1008E0003162306A029908433062FFF725FD054600
:1008F000306A800707D4FFF71FFD401BB842F7D9C5
:10090000032005B0F0BD01980028039F00D09DE6AC
:10091000F06900998843F06198E60120010432688B
:100920008A433260810432688A4332604404FFF7AC
:1009300003FD0546039F3068204200D15EE6FFF7C5
:10094000FBFC411B03206429F5D95FE001208104F1
:1009500032680A43326001043068084307E001202E
:10096000010432688A433260810430688843306011
:1009700001204404FFF7E0FC05463068204200D027
:100980003CE6FFF7D9FC401B6428F6D9032005B0EC
:10099000F0BD6406306820423AD0FFF7CDFC411B21
:1009A00003200329F6D331E000100240B8437063FE
:1009B000FFF7C2FC0546706B384200D125E7FFF710
:1009C000BBFC411B03200229F5D91FE0F06A0F216F
:1009D0008843039A116B0143F1627B20C003716865
:1009E0008143D06A0843916A01437160306801997C
:1009F00008433060FFF7A0FC04463068384207D156
:100A0000FFF79AFC011B03200229F6D905B0F0BDBF
:100A1000029805B0F0BDC046007000408813000089
:100A2000401E010E01D0012070470749074A50605F
:100A3000074803680B40032189075918016000200B
:100A40009060072111607047FFFFFF0010E000E099
:100A500020ED00E0FEE770477047704780B5FFF774
:100A60006FFC80BD1148026801210A4302604268A0
:100A70000F4B1340436002680E4B134003608A041F
:100A80000368934303603F22120443689343436027
:100A9000C26A0F239A43C262026B074B134003637F
:100AA000426B8A434263002181607047001002401C
:100AB0000CB8FF08FFFFF6FE2CFEFCFF9AB0FFF714
:100AC00047FC0DAC201D3021FFF719FB00261696C0
:100AD00010201190012010900546022001900D90E9
:100AE0002046FFF769FD0C960B960A9607200990A1
:100AF00009A83146FFF782FC11961096E804524986
:100B00000A6802430A600A68024009920998A80428
:100B100006950A6802430A6009680140099109982C
:100B2000FF200102079149483246FFF7FCFB0F27DF
:100B300039020591464C20463246FFF7F4FB0F96EA
:100B40000E9638030D900DAF20463946FFF726FB71
:100B500010960F960E9507980D903C483946FFF772
:100B60001DFB10960F960E95059D0D952046394656
:100B7000FFF714FB20462946069F3A46FFF7D3FBB2
:100B8000324807993246FFF7CEFB380304907803CA
:100B9000029005E00427012220460599FFF7C3FBD8
:100BA000069D2902002620463246FFF7BCFB089727
:100BB000B8002849095A254F38462A46FFF7B3FBA3
:100BC0000520FFF7D9FA384607993246FFF7ABFB05
:100BD00020460499FFF7A2FB002807D0204602997F
:100BE000FFF79CFB0028019D00D0089D2046059939
:100BF000069C2246FFF797FB610200261448324606
:100C0000FFF791FB0395A8001249095A0F4D28469A
:100C10002246FFF788FB05200890FFF7ADFA28462B
:100C2000079932460A4CFFF77EFB20460499FFF7EE
:100C300075FB0028AED020460299FFF76FFB002815
:100C4000089FA8D0039FA6E71410024000040048A4
:100C500000080048780C000802E008C8121F08C10C
:100C6000002AFAD170477047002001E001C1121F2D
:100C7000002AFBD17047000000FC0000006000006B
:100C800000DA000000F200000066000000B600007C
:100C900000BE000000E0000000FE000000E60000D2
:100CA0000000000000000000000000000000000044
:100CB0000000000000000000000000000000000034
:100CC00001020304060708090203040506070809D0
:100CD0000A0B0C0D0E0F1010010203040506070885
:100CE000090A0B0C0D0E0F10080D00080000002063
:100CF00008000000580C0008100D00080800002033
:100D000008040000680C000800127A0000000000CF
:04000005080000C12E
:00000001FF
