:020000040800F2
:1000000040060020D5000008570A0008550A0008DD
:1000100000000000000000000000000000000000E0
:100020000000000000000000000000005B0A000863
:100030000000000000000000590A00085D0A0008E6
:10004000E7000008E7000008E7000008E7000008F4
:10005000E7000008E7000008E7000008E7000008E4
:10006000E7000008E7000008E7000008E7000008D4
:10007000E7000008E7000008E7000008E7000008C4
:10008000E7000008E7000008E7000008E7000008B4
:10009000E7000008E7000008E7000008E7000008A4
:1000A000E7000008E7000008E7000008E700000894
:1000B000E7000008E7000008E7000008E700000884
:1000C0000348854600F046F800480047110C000838
:1000D000400600200448804704480047FEE7FEE74A
:1000E000FEE7FEE7FEE7FEE7650A0008C10000083C
:1000F000D2B201E00270401C491EFBD270470022C0
:10010000F6E710B513460A4604461946FFF7F0FF16
:10011000204610BD70B50446002903D000202022DF
:10012000012310E0002801D00020C043C046C04693
:100130000DE02546D5408D4205D30D469540641B04
:100140001D46954040191546521E002DF1DC2146F2
:1001500070BD0000064C0125064E05E0E36807CCA3
:100160002B430C3C98471034B442F7D3FFF7ACFF55
:10017000A4110008C4110008B0B582B0019000F0CD
:10018000DBF804460198451C01D30020C54300F06C
:10019000D3F8001BA842FAD302B0B0BDF0B589B0C5
:1001A0000F4603465948834204D005203C68002C82
:1001B00005D1A9E004203C68002C00D1A4E017215F
:1001C000C9065A180A21CA410092042A00D3009095
:1001D0000120002507950390024604970CE0214377
:1001E000F1603C682046D040AD1C0799091D07917D
:1001F000521C002800D187E0501E039E06908640C6
:100200003440EED0059201947968102008431228FA
:1002100010D13C461C20079908400F218140069AC6
:10022000D708BF00DF193A6A8A4321698140114328
:1002300039626168032208461040A8400292AA4031
:100240001F68974307431F60D043122914D8012227
:100250008A40304C22420FD09A6802401C46049BD0
:10026000DF682346AF401743A7600A09069CA240F7
:100270005F68B74317435F60DA680240049FB8685D
:10028000A8401043D860C800059AAAD54A4A106809
:100290000121084310601068084008900C2007995D
:1002A00008400F218140069C029A9443089A1A4EF6
:1002B000A2598A43009981401143A151144E3168DB
:1002C0007868C2030CD5019C2143316071688203B8
:1002D0000CD4A1437160B168C2020CD4A1430BE0FD
:1002E000019CA143316071688203F2D521437160A2
:1002F000B168C202F2D52143059AB160F16880026B
:1003000000D56CE7A1436BE709B0F0BD00100048D1
:100310000004014006000600080001400069084092
:10032000411E88417047002A02D018228150704730
:100330002822815070470000044800687047C0467A
:1003400002480168491C01607047C0463C0000201B
:1003500010B58E48016810220A430260002420462E
:1003600000F004F800F014F8204610BDB0B50446C3
:1003700000F01CF97D21C900FFF7CCFE00F050FB16
:100380000025E84321462A4600F018F82846B0BD6B
:1003900082B00948016801221143016001681140DF
:1003A00001910199110742680A4342604068084080
:1003B0000090009802B0704718100240002805D441
:1003C0000322034693430B4A9A1806E00F22024089
:1003D000083A03239A43084BD2188007C00E8901BC
:1003E000C9B28140FF2383401068984308431060DE
:1003F0007047C04600E400E01CED00E0F0B581B0BD
:100400000D460446614A116801200140A94208D204
:1004100011680126B1432943116011683140A94296
:1004200044D121688A0706D5594E3268F0239A4391
:10043000A36813433360C90721D1544908680126D2
:100440003040A84205D90868B04308600868C00772
:100450002CD12078400707D5072000024C4A1168AC
:100460008143E06808431060494804682007810F11
:100470004948022979D3032962D1484875E0616867
:10048000434A032909D0121F02290BD0012910D198
:1004900012689203064609D50FE0126BD203064696
:1004A00004D50AE012689201064606D4304601B02F
:1004B000F0BD126892070646F8D5354A1068032643
:1004C000B04308431060FFF737FF07466068012814
:1004D00022D002282DD003280CD12D4800680C21F1
:1004E00001400C29A9D0FFF727FFC01B29498842EA
:1004F000F3D9DBE7264800680007800F9DD0FFF79F
:100500001BFFC01B23498842F4D9CFE7FFF714FF34
:10051000C01B20498842C9D81D4800680C210140F1
:100520000429F3D189E7FFF707FFC01B1949884267
:10053000BCD8174800680C2101400829F3D17CE79A
:100540000321C90322460A408A4200D113481049B8
:10055000896A0F220A401249895CFFF7DBFD0146D8
:10056000A002000F0F4A105C4843094909680906B8
:10057000090F0D4A515CC8400E49086000263046FC
:10058000FFF7F4FE304601B0F0BDC0460020024047
:10059000041002408813000000127A00006CDC0294
:1005A00094110008841100086411000801480068D3
:1005B0007047C04630000020F0B585B0074600788F
:1005C000C007F94E039719D071680C200140042927
:1005D0000DD071680140082900D0BDE00320C003A0
:1005E0007168014001200004814200D0B4E030680D
:1005F000800303D57868002800D110E1387880079F
:100600001ED570680007800F0CD070680C21014067
:10061000082978D10320C003716801400120C0037C
:10062000814270D13068800703D5F868012800D076
:10063000F5E03068F82188433969C9000143316029
:100640003878000724D43878400736D43878C00684
:1006500000D4BDE003984069411D00D1ACE0012801
:1006600000D0FBE0706B042101437163706B0121CA
:1006700001437163FFF760FE0546706B800700D58C
:100680009EE0FFF759FE411B03200229F5D9BDE189
:10069000706AF96900296BD0012108437062FFF785
:1006A0004BFE0546706A8007CDD4FFF745FE401B20
:1006B0000228F7D9032005B0F0BD01200290010700
:1006C000F0690840019006D1F0690843F061F069D3
:1006D0000840049004980091CF4F3868C00527D493
:1006E00002980402386820433860FFF725FE05466B
:1006F000386820421CD1FFF71FFE401B6428F7D941
:10070000032005B0F0BD3068F968002942D001210E
:1007100008433060FFF710FE05463068800788D434
:10072000FFF70AFE401B0228F7D9032005B0F0BDF1
:1007300003988068B94F002800D1B9E0052800D19E
:10074000CBE0012800D1CCE0306A029988433062C6
:10075000306A04218843C7E07868002800D1DCE0D3
:10076000052800D1F2E0012800D0F8E00120F2E0F5
:10077000012188437062FFF7DFFD0546706A80073C
:1007800000D460E7FFF7D8FD401B0228F6D903200C
:1007900005B0F0BD012188433060FFF7CDFD05466F
:1007A0003068800700D44BE7FFF7C6FD401B0228E6
:1007B000F6D9032005B0F0BD706B04218843706347
:1007C000706BF821884303998969C90001437163FB
:1007D00003980078800618D572680C210A40012021
:1007E00007040C2A09D072680A40082A4BD1032159
:1007F000C90372680A408A4245D1716B394204D0FC
:100800000399096A012900D000E10398476A002290
:10081000002F07D070680C210140082905D1012064
:1008200005B0F0BD104605B0F0BD029201242106CE
:100830003068019188433060FFF77EFD0546022F46
:1008400000D0A6E067063068384200D1BEE0FFF76E
:1008500073FD411B03200229F5D9D7E0706B0421F9
:1008600001437163706B012188437063FFF764FD7E
:100870000546706B8007ABD5FFF75EFD411B03207B
:100880000229F6D9C2E0706B0399096A002900D1E8
:100890008CE038437063FFF74FFD0546706B3842BC
:1008A000B3D1FFF749FD411B03200229F6D9ADE082
:1008B000306A029988433062306A0421884330628A
:1008C000FFF73AFD0546306A80071CD5FFF734FD77
:1008D000411B0320B942F6D998E0306A0421014354
:1008E0003162306A029908433062FFF725FD054600
:1008F000306A800707D4FFF71FFD401BB842F7D9C5
:10090000032005B0F0BD01980028039F00D09DE6AC
:10091000F06900998843F06198E60120010432688B
:100920008A433260810432688A4332604404FFF7AC
:1009300003FD0546039F3068204200D15EE6FFF7C5
:10094000FBFC411B03206429F5D95FE001208104F1
:1009500032680A43326001043068084307E001202E
:10096000010432688A433260810430688843306011
:1009700001204404FFF7E0FC05463068204200D027
:100980003CE6FFF7D9FC401B6428F6D9032005B0EC
:10099000F0BD6406306820423AD0FFF7CDFC411B21
:1009A00003200329F6D331E000100240B8437063FE
:1009B000FFF7C2FC0546706B384200D125E7FFF710
:1009C000BBFC411B03200229F5D91FE0F06A0F216F
:1009D0008843039A116B0143F1627B20C003716865
:1009E0008143D06A0843916A01437160306801997C
:1009F00008433060FFF7A0FC04463068384207D156
:100A0000FFF79AFC011B03200229F6D905B0F0BDBF
:100A1000029805B0F0BDC046007000408813000089
:100A2000401E010E01D0012070470749074A50605F
:100A3000074803680B40032189075918016000200B
:100A40009060072111607047FFFFFF0010E000E099
:100A500020ED00E0FEE770477047704780B5FFF774
:100A60006FFC80BD1148026801210A4302604268A0
:100A70000F4B1340436002680E4B134003608A041F
:100A80000368934303603F22120443689343436027
:100A9000C26A0F239A43C262026B074B134003637F
:100AA000426B8A434263002181607047001002401C
:100AB0000CB8FF08FFFFF6FE2CFEFCFFB0B50328C4
:100AC00023D8800001A108588746C046DD0A0008E7
:100AD0000F0B00083B0B0008670B000801242103E3
:100AE0003B4D2846FFF71AFC002859D0012461032A
:100AF0002846FFF713FC00285AD0A1032846FFF729
:100B00000DFC00285CD00A2442E01020B0BD012575
:100B100029032F4C2046FFF701FC002842D069032F
:100B20002046FFF7FBFB002844D0A9032046FFF72F
:100B3000F5FB002846D00B242AE001252903244C8C
:100B40002046FFF7EBFB00282ED069032046FFF775
:100B5000E5FB002830D0A9032046FFF7DFFB002883
:100B600032D00C2414E001252903194C2046FFF74C
:100B7000D5FB00281AD069032046FFF7CFFB0028D9
:100B80001CD0A9032046FFF7C9FB00281ED00D2466
:100B90000120C1030E48FFF7C1FB002800D010243C
:100BA0002046B0BD0420B0BD0720B0BD0E20B0BDB2
:100BB0000220B0BD0520B0BD0820B0BD0020B0BDF2
:100BC0000320B0BD0620B0BD0920B0BD0F20B0BDD0
:100BD00000080048014800687047C04638000020FF
:100BE00080B500F001F880BD10B5002801D00446A2
:100BF00006E0012404E0FFF7EDFF002806D080475F
:100C0000204600F08FFA0028F5D010BD002010BD5E
:100C1000A4B0FFF79DFB17AC201D3021FFF76FFA42
:100C20000027209701251A95022017901020009088
:100C30001B902046FFF7C0FC1697159714970720C6
:100C4000139013A83946FFF7D9FB1B971A97E904AD
:100C5000384802680A43026002680A4013921399F6
:100C6000A90502680A43026002680A4013921399B8
:100C7000A90402680A43026002680A4013921399A9
:100C8000690402680A4302600068084013901398E0
:100C9000FF2001021091F8483A46FFF744FB0F2469
:100CA0002602F64831463A46FFF73DFB199518975C
:100CB0002003179017ACF1482146FFF76FFA1A97F7
:100CC0001997189510981790EB482146FFF766FA88
:100CD0001A9719970E9518950D961796E74821467D
:100CE000FFF75CFAE6480EC800681A9016AC0FC40D
:100CF00013A80EC0FFF720FB12900098FFF770FFBB
:100D0000E04B1C681B1D0ECB036042608160C46019
:100D10000F90001D0190169805901A9E159804904A
:100D2000199914980390189A13980290179D0A978E
:100D300011971FE014100240102005900A9100271F
:100D4000CD4C2046109E31463A46FFF7ECFA0F98FC
:100D50000188012520462A46FFF7E5FA2846FFF7D5
:100D60000BFA204631463A46FFF7DDFA069E0B990C
:100D70000C9A099D0B92079108960024BF4F3846A4
:100D800010992246FFF7CFFA01263046FFF7F4F913
:100D900038460D993246FFF7C6FA310238462246E8
:100DA000FFF7C1FA3046FFF7E7F92046FFF786FE66
:100DB0000746A84203D0FFF7BFFA12901194029899
:100DC000381A45424541FFF7B7FA1299401A2146B1
:100DD000119A91412938A1410E9800DB284600283C
:100DE000099702D00A9806901EE0102F0A9903D1A5
:100DF00000980290069117E0481C0829069002DC32
:100E00008000A04904E00939052904D888009E49DA
:100E10000818006801E0092000030F9C0ECC019D1A
:100E20000EC50C3C206002970024934D2846109F6D
:100E300039462246FFF777FA0F98818928463246CD
:100E4000FFF771FA3046FFF797F9284639462246F0
:100E5000FFF769FA894D28460D993246FFF763FA84
:100E6000710228462246FFF75EFA3046FFF784F902
:100E70003046FFF723FE05460B98854203D0FFF767
:100E80005BFA129011940398281A47424741FFF7E2
:100E900053FA1299401A2146119A91412938A141D9
:100EA0000E9800DB38460028109C06990C9501D05E
:100EB0000A911EE0102D03D1102003900A9118E032
:100EC000481C09290A9002DA80006E4904E00939B9
:100ED000052904D888006C490818006801E0092039
:100EE00000030F9D0ECD019F0EC70C3D28600C988E
:100EF00003900027604D284621463A46FFF713FA33
:100F00000F98018928463246FFF70DFA3046FFF761
:100F100033F9284621463A46FFF705FA574C204652
:100F20000D993246FFF7FFF9B10220463A46FFF726
:100F3000FAF93046FFF720F90220FFF7BFFD04461B
:100F40000798844203D0FFF7F7F91290119704989D
:100F5000201A45424541FFF7EFF91299401A3946E8
:100F6000119A91412938B9410E9800DB2846002892
:100F70000B9403D1102C04D1102004900A980790F0
:100F800019E00A98411C0928079102DA88003D49B6
:100F900004E00938052804D880003B490818006897
:100FA00001E0092000030F9C0ECC019D0EC50C3CF6
:100FB00020600B98049000272F4C2046109D294656
:100FC0003A46FFF7B0F90F98818820463246FFF77E
:100FD000AAF93046FFF7D0F8204629463A46FFF7EF
:100FE000A2F9264C20460D993246FFF79CF9F102F2
:100FF00020463A46FFF797F93046FFF7BDF8032041
:10100000FFF75CFD06460898864203D0FFF794F987
:10101000129011970598301A45424541FFF78CF917
:101020001299401A3946119A91412938B9410E98BE
:1010300000DB284600280799069600D07EE6102E91
:1010400000D179E6481C09290A9002DA80000D498E
:1010500004E00939052904D888000B4908180068FC
:1010600001E0092000030F9C0ECC019D0EC50C3C35
:101070002060059663E6C04600040048000800486A
:1010800074110008080000204C110008F0B58C46CF
:101090000B30C108C90067460D461E4C7F1E20E07C
:1010A000061D3A46764203683240934218D39E1A90
:1010B000AE4215D3002A07D086189B1A446818C67A
:1010C000083E44C0041F3046AB4205D95B1B4219A1
:1010D000466848C2083A00E04268226002C003E065
:1010E000041D20680028DBD1002804D10A4A1068BA
:1010F000002801D00020F0BD064B08481860084BBE
:101100001B1ADB08DB000360002343600120106032
:10111000C1E700000000002004000020440000207F
:101120004002002000B50721FFF7B0FF00BD02E03C
:1011300008C8121F08C1002AFAD170477047002062
:1011400001E001C1121F002AFBD1704700EE000030
:10115000003E0000009C0000007A0000009E00009D
:10116000008E0000000000000000000001020304E7
:101170000607080910000000000000000000000041
:101180000000000002030405060708090A0B0C0D05
:101190000E0F10100102030405060708090A0B0CC4
:1011A0000D0E0F10C81100080000002038000000CC
:1011B0002E11000800120008380000200806000068
:1011C0003E110008000000000000000000000000C8
:1011D00000FC00000060000000DA000000F20000E7
:1011E0000066000000B6000000BE000000E0000045
:1011F00000FE000000E6000000127A00000000007F
:04000005080000C12E
:00000001FF
