:020000040800F2
:1000000040060020D5000008970A0008950A00085D
:1000100000000000000000000000000000000000E0
:100020000000000000000000000000009B0A000823
:100030000000000000000000990A00089D0A000866
:10004000E7000008E7000008E7000008E7000008F4
:10005000E7000008E7000008E7000008E7000008E4
:10006000E7000008E7000008E7000008E7000008D4
:10007000E7000008E7000008E7000008E7000008C4
:10008000E7000008E7000008E7000008E7000008B4
:10009000E7000008E7000008E7000008E7000008A4
:1000A000E7000008E7000008E7000008E700000894
:1000B000E7000008E7000008E7000008E700000884
:1000C0000348854600F066F800480047551C0008C4
:1000D000400600200448804704480047FEE7FEE74A
:1000E000FEE7FEE7FEE7FEE7A50A0008C1000008FC
:1000F00010B5431A934209D28318881803E0401EB2
:1001000001785B1E1970521EF9D210BD03460B43D5
:100110009B0703D009E008C9121F08C0042AFAD2BD
:1001200003E00B780370401C491C521EF9D210BD2D
:10013000D2B201E00270401C491EFBD2704700227F
:10014000F6E710B513460A4604461946FFF7F0FFD6
:10015000204610BD70B50446002903D0002020229F
:10016000012310E0002801D00020C043C046C04653
:100170000DE02546D5408D4205D30D469540641BC4
:100180001D46954040191546521E002DF1DC2146B2
:1001900070BD0000064C0125064E05E0E36807CC63
:1001A0002B430C3C98471034B442F7D3FFF78CFF35
:1001B000681F0008881F0008B0B582B0019000F0E9
:1001C000DBF804460198451C01D30020C54300F02C
:1001D000D3F8001BA842FAD302B0B0BDF0B589B085
:1001E0000F4603465948834204D005203C68002C42
:1001F00005D1A9E004203C68002C00D1A4E017211F
:10020000C9065A180A21CA410092042A00D3009054
:100210000120002507950390024604970CE0214336
:10022000F1603C682046D040AD1C0799091D07913C
:10023000521C002800D187E0501E039E0690864085
:100240003440EED0059201947968102008431228BA
:1002500010D13C461C20079908400F218140069A86
:10026000D708BF00DF193A6A8A43216981401143E8
:1002700039626168032208461040A8400292AA40F1
:100280001F68974307431F60D043122914D80122E7
:100290008A40304C22420FD09A6802401C46049B90
:1002A000DF682346AF401743A7600A09069CA240B7
:1002B0005F68B74317435F60DA680240049FB8681D
:1002C000A8401043D860C800059AAAD54A4A1068C9
:1002D0000121084310601068084008900C2007991D
:1002E00008400F218140069C029A9443089A1A4EB6
:1002F000A2598A43009981401143A151144E31689B
:100300007868C2030CD5019C214331607168820377
:100310000CD4A1437160B168C2020CD4A1430BE0BC
:10032000019CA143316071688203F2D52143716061
:10033000B168C202F2D52143059AB160F16880022A
:1003400000D56CE7A1436BE709B0F0BD0010004891
:100350000004014006000600080001400069084052
:10036000411E88417047002A02D0182281507047F0
:100370002822815070470000044800687047C0463A
:1003800002480168491C01607047C0463C000020DB
:1003900010B58E48016810220A43026000242046EE
:1003A00000F004F800F014F8204610BDB0B5044683
:1003B00000F01CF97D21C900FFF7CCFE00F050FBD6
:1003C0000025E84321462A4600F018F82846B0BD2B
:1003D00082B009480168012211430160016811409F
:1003E00001910199110742680A4342604068084040
:1003F0000090009802B0704718100240002805D401
:100400000322034693430B4A9A1806E00F22024048
:10041000083A03239A43084BD2188007C00E89017B
:10042000C9B28140FF23834010689843084310609D
:100430007047C04600E400E01CED00E0F0B581B07C
:100440000D460446614A116801200140A94208D2C4
:1004500011680126B1432943116011683140A94256
:1004600044D121688A0706D5594E3268F0239A4351
:10047000A36813433360C90721D154490868012692
:100480003040A84205D90868B04308600868C00732
:100490002CD12078400707D5072000024C4A11686C
:1004A0008143E06808431060494804682007810FD1
:1004B0004948022979D3032962D1484875E0616827
:1004C000434A032909D0121F02290BD0012910D158
:1004D00012689203064609D50FE0126BD203064656
:1004E00004D50AE012689201064606D4304601B0EF
:1004F000F0BD126892070646F8D5354A1068032603
:10050000B04308431060FFF737FF074660680128D3
:1005100022D002282DD003280CD12D4800680C21B0
:1005200001400C29A9D0FFF727FFC01B29498842A9
:10053000F3D9DBE7264800680007800F9DD0FFF75E
:100540001BFFC01B23498842F4D9CFE7FFF714FFF4
:10055000C01B20498842C9D81D4800680C210140B1
:100560000429F3D189E7FFF707FFC01B1949884227
:10057000BCD8174800680C2101400829F3D17CE75A
:100580000321C90322460A408A4200D11348104978
:10059000896A0F220A401249895CFFF7DBFD014698
:1005A000A002000F0F4A105C484309490968090678
:1005B000090F0D4A515CC8400E49086000263046BC
:1005C000FFF7F4FE304601B0F0BDC0460020024007
:1005D000041002408813000000127A00006CDC0254
:1005E000581F0008481F0008381F0008014800680D
:1005F0007047C04630000020F0B585B0074600784F
:10060000C007F94E039719D071680C2001400429E6
:100610000DD071680140082900D0BDE00320C0035F
:100620007168014001200004814200D0B4E03068CC
:10063000800303D57868002800D110E1387880075E
:100640001ED570680007800F0CD070680C21014027
:10065000082978D10320C003716801400120C0033C
:10066000814270D13068800703D5F868012800D036
:10067000F5E03068F82188433969C90001433160E9
:100680003878000724D43878400736D43878C00644
:1006900000D4BDE003984069411D00D1ACE00128C1
:1006A00000D0FBE0706B042101437163706B01218A
:1006B00001437163FFF760FE0546706B800700D54C
:1006C0009EE0FFF759FE411B03200229F5D9BDE149
:1006D000706AF96900296BD0012108437062FFF745
:1006E0004BFE0546706A8007CDD4FFF745FE401BE0
:1006F0000228F7D9032005B0F0BD012002900107C0
:10070000F0690840019006D1F0690843F061F06992
:100710000840049004980091CF4F3868C00527D452
:1007200002980402386820433860FFF725FE05462A
:10073000386820421CD1FFF71FFE401B6428F7D900
:10074000032005B0F0BD3068F968002942D00121CE
:1007500008433060FFF710FE05463068800788D4F4
:10076000FFF70AFE401B0228F7D9032005B0F0BDB1
:1007700003988068B94F002800D1B9E0052800D15E
:10078000CBE0012800D1CCE0306A02998843306286
:10079000306A04218843C7E07868002800D1DCE093
:1007A000052800D1F2E0012800D0F8E00120F2E0B5
:1007B000012188437062FFF7DFFD0546706A8007FC
:1007C00000D460E7FFF7D8FD401B0228F6D90320CC
:1007D00005B0F0BD012188433060FFF7CDFD05462F
:1007E0003068800700D44BE7FFF7C6FD401B0228A6
:1007F000F6D9032005B0F0BD706B04218843706307
:10080000706BF821884303998969C90001437163BA
:1008100003980078800618D572680C210A400120E0
:1008200007040C2A09D072680A40082A4BD1032118
:10083000C90372680A408A4245D1716B394204D0BB
:100840000399096A012900D000E10398476A002250
:10085000002F07D070680C210140082905D1012024
:1008600005B0F0BD104605B0F0BD0292012421068E
:100870003068019188433060FFF77EFD0546022F06
:1008800000D0A6E067063068384200D1BEE0FFF72E
:1008900073FD411B03200229F5D9D7E0706B0421B9
:1008A00001437163706B012188437063FFF764FD3E
:1008B0000546706B8007ABD5FFF75EFD411B03203B
:1008C0000229F6D9C2E0706B0399096A002900D1A8
:1008D0008CE038437063FFF74FFD0546706B38427C
:1008E000B3D1FFF749FD411B03200229F6D9ADE042
:1008F000306A029988433062306A0421884330624A
:10090000FFF73AFD0546306A80071CD5FFF734FD36
:10091000411B0320B942F6D998E0306A0421014313
:100920003162306A029908433062FFF725FD0546BF
:10093000306A800707D4FFF71FFD401BB842F7D984
:10094000032005B0F0BD01980028039F00D09DE66C
:10095000F06900998843F06198E60120010432684B
:100960008A433260810432688A4332604404FFF76C
:1009700003FD0546039F3068204200D15EE6FFF785
:10098000FBFC411B03206429F5D95FE001208104B1
:1009900032680A43326001043068084307E00120EE
:1009A000010432688A4332608104306888433060D1
:1009B00001204404FFF7E0FC05463068204200D0E7
:1009C0003CE6FFF7D9FC401B6428F6D9032005B0AC
:1009D000F0BD6406306820423AD0FFF7CDFC411BE1
:1009E00003200329F6D331E000100240B8437063BE
:1009F000FFF7C2FC0546706B384200D125E7FFF7D0
:100A0000BBFC411B03200229F5D91FE0F06A0F212E
:100A10008843039A116B0143F1627B20C003716824
:100A20008143D06A0843916A01437160306801993B
:100A300008433060FFF7A0FC04463068384207D115
:100A4000FFF79AFC011B03200229F6D905B0F0BD7F
:100A5000029805B0F0BDC046007000408813000049
:100A6000401E010E01D0012070470749074A50601F
:100A7000074803680B4003218907591801600020CB
:100A80009060072111607047FFFFFF0010E000E059
:100A900020ED00E0FEE770477047704780B5FFF734
:100AA0006FFC80BD1148026801210A430260426860
:100AB0000F4B1340436002680E4B134003608A04DF
:100AC0000368934303603F221204436893434360E7
:100AD000C26A0F239A43C262026B074B134003633F
:100AE000426B8A43426300218160704700100240DC
:100AF0000CB8FF08FFFFF6FE2CFEFCFFF0B585B03A
:100B00000446002505604560856003291CD88800DF
:100B100001A108588746C046290B00085F0B000852
:100B2000810B0008A30B000801273903F24D28466A
:100B3000FFF714FC002800D0EDE06168A068814256
:100B400040D280C16160E6E0042001F06FF810211E
:100B5000024602C205C4083CA26000F089FC0127DD
:100B60003903E54D2846FFF7F9FB002800D01DE1C9
:100B70006168A068814248D2042001C1616015E12A
:100B800001273903DC4D2846FFF7E8FB002800D099
:100B900057E16168A06881425BD2072001C16160B2
:100BA0004FE101263103D44F3846FFF7D7FB002829
:100BB00000D092E16168A06881426ED20E2001C12E
:100BC00061608AE12368CA1A95106E1CB10F01D0CA
:100BD00000F096FC0492C11A4810864200D80646DE
:100BE000C648C74A914200D30646002E049A039392
:100BF000029577D0864201D900F082FCB00001F066
:100C000015F80546039B049A6DE02368CA1A9510EF
:100C10006E1CB10F01D000F073FC0492C11A481091
:100C2000864200D80646B548B54A914200D30646EA
:100C3000002E049A0393029500D19DE0864201D9CB
:100C400000F05EFCB00000F0F1FF0546039B049A43
:100C500093E02368CA1A95106E1CB10F01D000F002
:100C60004FFC0492C11A4810864200D80646A34899
:100C7000A34A914200D30646002E049A039302959C
:100C800000D1C4E0864201D900F03AFCB00000F087
:100C9000CDFF0546039B049ABAE02368CA1A911057
:100CA00001914F1CB90F01D000F02AFC0392C11A28
:100CB0004810874200D807469048914A914200D395
:100CC0000746002F039A0496029300D1EAE0874278
:100CD00001D900F015FCB80000F0A8FF0646029B01
:100CE000039AE0E00025B0002918029880002E1831
:100CF00080C6012A06DB284604911946FFF7F8F959
:100D00000499039B60C42160083C002B7A4D02D0FB
:100D1000184600F087FF79032846FFF71FFB0028DD
:100D200000D079E16168A068814203D2022001C14C
:100D3000616071E12368CA1A95106E1CB10F00D072
:100D4000DEE30492C11A4810864200D806466B487A
:100D50006B4A914200D30646002E049A03930295F3
:100D600000D13FE1864200D9CAE3B00000F05EFF47
:100D70000546039B049A36E10025B0002918029825
:100D800080002E18042001C6012A06DB28460491A3
:100D90001946FFF7ADF90499039B60C42160083C34
:100DA000002B554D02D0184600F03CFF7903284631
:100DB000FFF7D4FA002800D079E16168A068814289
:100DC00003D2052001C1616071E12368CA1A951040
:100DD0006E1CB10F00D093E30492C11A48108642F2
:100DE00000D806464548464A914200D30646002EA2
:100DF000049A0393029500D13FE1864200D97FE334
:100E0000B00000F013FF0546039B049A36E100256D
:100E1000B0002918029880002E18072001C6012A68
:100E200006DB284604911946FFF762F90499039BF3
:100E300060C42160083C002B2F4D02D0184600F002
:100E4000F1FE79032846FFF789FA002800D079E1FE
:100E50006168A068814203D2082001C1616071E12C
:100E60002368CA1A95106E1CB10F00D048E3049293
:100E7000C11A4810864200D806462048204A9142AE
:100E800000D30646002E049A0393029500D13FE159
:100E9000864200D934E3B00000F0C8FE0546039B4B
:100EA000049A36E10026B8003118019880003718FE
:100EB0000E2001C7012A06DB304603911946FFF7D1
:100EC00017F90399029BC0C42160083C002B049EC3
:100ED000094F02D0184600F0A5FE71033846FFF70F
:100EE0003DFA00284CD16168A06881420AD20020F6
:100EF00001C1616044E0C04600080048FFFFFF3FB9
:100F0000FCFFFF7F2368CA1A911001914F1CB90F93
:100F100000D0F5E20392C11A4810874200D8074674
:100F20000496F848F84A914200D307460021002F62
:100F30000E46039A02930AD00091874200D9DFE25D
:100F4000B80000F073FE0646029B039A0099B800B1
:100F50003018039001988000371802C7012A04DB7B
:100F600030461946FFF7C4F8029BC0C403982060BE
:100F7000083C002B049EF94F02D0184600F052FEA8
:100F8000B1033846FFF7EAF9002800D026E161688E
:100F9000A068814203D20F2001C161601EE1236875
:100FA000CA1A911001914F1CB90F00D0A8E2039208
:100FB000C11A4810874200D80746E648E64A9142DF
:100FC00000D30746002F039A0496029300D1EAE06B
:100FD000874200D994E2B80000F028FE0646029B42
:100FE000039AE1E00025B0002918029880002E182D
:100FF000022001C6012A06DB284604911946FFF7A4
:1010000077F80499039B60C42160083C002BD34D02
:1010100002D0184600F006FEB9032846FFF79EF9F5
:10102000002800D041E16168A068814203D203201A
:1010300001C1616039E12368CA1A95106E1CB10FB5
:1010400000D05DE20492C11A4810864200D80646DC
:10105000C048C14A914200D30646002E049A039329
:10106000029500D107E1864200D949E2B00000F0C4
:10107000DDFD0546039B049AFEE00025B00029181B
:10108000029880002E18052001C6012A06DB28469A
:1010900004911946FFF72CF80499039B60C4216062
:1010A000083C002BAD4D02D0184600F0BBFDB90343
:1010B0002846FFF753F9002800D06BE16168A0686B
:1010C000814203D2062001C1616063E12368CA1A2C
:1010D00095106E1CB10F00D012E20492C11A481094
:1010E000864200D806469B489B4A914200D306465A
:1010F000002E049A0393029500D131E1864200D973
:10110000FEE1B00000F092FD0546039B049A28E141
:101110000025B0002918029880002E18082001C66A
:10112000012A06DB284604911946FEF7E1FF0499DF
:10113000039B60C42160083C002BF24D02D018468E
:1011400000F070FDB9032846FFF708F9002800D029
:1011500088E16168A068814203D2092001C1616011
:1011600080E12368CA1A95106E1CB10F00D0C7E148
:101170000492C11A4810864200D80646E248E34A63
:10118000914200D30646002E049A0393029500D1A3
:101190004EE1864200D9B3E1B00000F047FD0546BC
:1011A000039B049A45E10026B8003118019880009D
:1011B00037180F2001C7012A06DB30460391194674
:1011C000FEF796FF0399029BC0C42160083C002BE8
:1011D000049ECC4F02D0184600F024FDF10338469F
:1011E000FFF7BCF8002800D042E16168A0688142A6
:1011F00004D20D2001C1616005B0F0BD26688A1BD4
:10120000911004914F1CB90F00D079E1811B481057
:10121000874206D9BC48BD4B994207D2002F08D15E
:1012200010E00746B848B94B9942F7D30746002F5C
:1012300008D00392874200D962E1B80000F0F6FCC2
:101240000546039AB8002918049880002F180D202D
:1012500001C7012A05DB284604913146FEF748FF05
:101260000499A0C42160002E00D101E1304600F0B5
:10127000D9FC05B0F0BD0025B00029180298800007
:101280002E18032001C6012A06DB284604911946C0
:10129000FEF72EFF0499039B60C42160083C002BDD
:1012A000984D02D0184600F0BDFCF9032846FFF720
:1012B00055F8002800D0DBE06168A068814204D2C4
:1012C0000A2001C1616005B0F0BD25684A1B971076
:1012D0007E1CB10F00D013E1411B4810864215D986
:1012E00089488A4B994216D2002E049717D0039250
:1012F000864200D904E1B00000F098FC0746039A4A
:101300000EE0C046FFFFFF3FFCFFFF7F06467E4822
:101310007E4B9942E8D30646002E0497E7D100277A
:10132000B0003918049880003E180A2001C6012A2E
:1013300005DB384604912946FEF7DAFE049927605A
:101340006660A160002D00D192E0284600F06AFCA2
:1013500005B0F0BDFFFFFF3FFCFFFF7F0008004826
:101360000025B0002918029880002E18062001C61A
:10137000012A06DB284604911946FEF7B9FE0499B6
:10138000039B60C42160083C002B5E4D02D01846D0
:1013900000F048FCF9032846FEF7E0FF002867D17B
:1013A0006168A068814204D20B2001C1616005B070
:1013B000F0BD25684A1B97107E1CB10F00D09FE03E
:1013C000411B4810864210D94F48504B994211D2C8
:1013D000002E049712D00392864200D990E0B0000C
:1013E00000F024FC0746039A09E006464648474BAE
:1013F0009942EDD30646002E0497ECD10027B000A9
:101400003918049880003E180B2001C6012A05DB1C
:10141000384604912946FEF76BFE04992760666002
:10142000A160002D24D0284600F0FCFB05B0F0BDE3
:101430000025B0002918029880002E18092001C646
:10144000012A06DB284604911946FEF751FE04994D
:10145000039B60C42160083C002B2A4D02D0184633
:1014600000F0E0FBF9032846FEF778FF002801D0E2
:1014700005B0F0BD6168A068814204D20C2001C1B2
:10148000616005B0F0BD25684A1B97107E1CB10F46
:1014900036D1411B481086420FD91B481B4B99423D
:1014A00010D2002E049711D00392864228D8B000A3
:1014B00000F0BCFB0746039A09E006461248134BAE
:1014C0009942EED30646002E0497EDD10027B000D6
:1014D0003918049880003E180C2001C6012A05DB4B
:1014E000384604912946FEF703FE0499276066609A
:1014F000A160002DBCD0284600F094FB05B0F0BDE3
:10150000C046C04600080048FFFFFF3FFCFFFF7FCA
:10151000F0B585B00F46044600686668864201D083
:1015200035466CE0A068E1688842049714D2091A35
:101530008910491CCA0F891849108F00C519821BD0
:1015400005D0AD1A28463146FEF7D2FDA068C01975
:101550006560A060049F52E0891B01D0491000E043
:1015600001218A0F53D1801B029003200190C043B8
:10157000CD1C039005408F00384600F057FB029ABF
:101580004519C119002A2F462FD000910399114007
:10159000121F02929208571C019A17402A4633469E
:1015A00012D00391334602CB2A4602C2012F0AD041
:1015B000716802C2022F02D13346083303E0B168DA
:1015C00002C233460C3303996F1802990C290BD3CE
:1015D000196811605968516099689160D968D16043
:1015E00010331032BA42F3D10099A1C421600C3CEF
:1015F000002E049F03D0304600F014FB6568386865
:10160000291F08606068001F606005B0F0BDC0461B
:10161000C046F0B585B00D4604468168C068814279
:1016200078D141CC083C8642049519D9301A8010F3
:10163000401CC20F801840108200B71A40428D1B18
:1016400007D00390384631462A46FEF751FD0398ED
:1016500066687919800030186060A160049D59E0C7
:101660000290081A01D0401000E00120820F58D1EA
:10167000891B019103210091C943074603910F4043
:101680008500284600F0D2FA019AC3194719002AAA
:10169000194634D0039D1540111F01918908491C3A
:1016A000009A11402A4609D003920097374604CF8A
:1016B0001D4604C5012907D13E460EE01D46991876
:1016C000019A0C2A0FD21AE0726804C5022901D1CE
:1016D000083602E0B16802C50C36009F039A9918DB
:1016E000019A0C2A0BD332682A6072686A60B26869
:1016F000AA60F268EA60103610358D42F3D109C451
:10170000083CA160E76002980028049D02D000F028
:1017100089FAA16828680860A068001DA06005B06B
:10172000F0BDC046C046F0B585B00F46044600681F
:101730006668864201D035466CE0A068E168884260
:10174000049714D2091A8910491CCA0F8918491024
:101750008F00C519821B05D0AD1A28463146FEF709
:10176000C7FCA068C0196560A060049F52E0891B97
:1017700001D0491000E001218A0F53D1801B029053
:1017800003200190C043CD1C039005408F003846D4
:1017900000F04CFA029A4519C119002A2F462FD0A1
:1017A000009103991140121F02929208571C019A4E
:1017B00017402A46334612D00391334602CB2A46BD
:1017C00002C2012F0AD0716802C2022F02D1334631
:1017D000083303E0B16802C233460C3303996F1833
:1017E00002990C290BD319681160596851609968E6
:1017F0009160D968D16010331032BA42F3D10099A8
:10180000A1C421600C3C002E049F03D0304600F0A0
:1018100009FA65683868291F08606068001F606001
:1018200005B0F0BDC046C046F0B585B00D460446D3
:101830008168C068814278D141CC083C86420495D9
:1018400019D9301A8010401CC20F80184010820035
:10185000B71A40428D1B07D00390384631462A46BE
:10186000FEF746FC039866687919800030186060BE
:10187000A160049D59E00290081A01D0401000E0D8
:101880000120820F58D1891B019103210091C94386
:10189000074603910F408500284600F0C7F9019ADA
:1018A000C3194719002A194634D0039D1540111F4A
:1018B00001918908491C009A11402A4609D00392D7
:1018C0000097374604CF1D4604C5012907D13E467F
:1018D0000EE01D469918019A0C2A0FD21AE0726880
:1018E00004C5022901D1083602E0B16802C50C36F0
:1018F000009F039A9918019A0C2A0BD332682A6028
:1019000072686A60B268AA60F268EA6010361035E0
:101910008D42F3D109C4083CA160E7600298002819
:10192000049D02D000F07EF9A16828680860A068D4
:10193000001DA06005B0F0BDC046C046F0B58DB03A
:1019400004460069102828D31038206165682E46A7
:1019500080CE6660A168E068814200D004E1206822
:10196000864206975BD9301A8010401CC20F80183F
:1019700040108200B51A40428F1B07D005902846C0
:1019800031463A46FEF7B4FB05986668E9198000CF
:1019900030186060A160069FE6E009CC21686268AB
:1019A000CB1A9E10083C101A83109E420BD2402086
:1019B0008A4239D000F03AF9089008A92046FFF78A
:1019C00028FE0DB0F0BD21460C310C91002801D04D
:1019D000401000E00120810F00D01AE18500284668
:1019E00000F024F90890B10041180A9140190B90B9
:1019F0000991402000F01AF9079008A807A9FFF7FD
:101A000013FF6068A56885423CD02D1F08A82946B1
:101A1000FFF789FE60688542F7D1A16833E0049042
:101A2000081A4DD040104CE000F000F9089008A9C9
:101A30002046FFF76DFD65682E4680CE6660A16882
:101A4000E068814200D08FE022689642069766D90E
:101A5000B01A8010401CC20F801840108200B51AC6
:101A600040428F1B07D00590284631463A46FEF784
:101A70003FFB05986668E919800030186060A16036
:101A8000069F71E02946099860600A98A060206866
:101A9000089A2260E2680B9BE36009950A9108901E
:101AA0000B92A94206D04A1B121F9208D243920001
:101AB00089180A91002801D000F0B4F80DB0F0BDEB
:101AC0000120820F00D0A4E0891B03910321019122
:101AD000C943074605910F408000029000F0A6F828
:101AE000C319039F02994218002F194631D0029260
:101AF0000599394005913A1F9108491C019F3940C9
:101B00001F4615D06E681F4640C7012901D1083510
:101B10000DE0AE6840C7022906D10C3507E0881AEF
:101B2000049227D0401026E0E96802C710352E46FF
:101B3000059959180C2A0BD332683A6072687A609A
:101B4000B268BA60F268FA60103610378F42F3D18B
:101B5000029A09C4083CA160E26004980028069F2C
:101B600002D000F05FF8A1680F60A068001DA060BF
:101B70000DB0F0BD0120820F4BD1891B03910321D1
:101B80000191C943074605910F408000029000F083
:101B90004DF8C319039F02994218002F19462CD003
:101BA00002920599394005913A1F9108491C019FFD
:101BB00039401F4610D06E681F4640C7012901D129
:101BC000083508E0AE6840C7022901D10C3502E0B3
:101BD000E96802C710352E46059959180C2A0BD30F
:101BE00032683A6072687A60B268BA60F268FA6025
:101BF000103610378F42F3D1029A09C4083CA16015
:101C0000E26004980028069FAED000F00BF8A168AF
:101C1000AAE7C046C0460000014800687047C046B9
:101C20003800002080B500F049F980BD10B50028CB
:101C300001D0044606E0012404E0FFF7EDFF002890
:101C400006D08047204600F063F90028F5D010BD8B
:101C5000002010BD96B0FEF79BFB09AC201D302183
:101C6000FEF76DFA0025129510200D9001200C90C2
:101C70000646022009902046FEF7BEFC089507950F
:101C800006950720059005A82946FEF7D7FB0D9578
:101C90000C950496F0045F490A6802430A600A68DA
:101CA000024005920598B0040A6802430A60096878
:101CB000014005910598FF200702574839462A46FA
:101CC000FEF751FB0F2421020291544E30462A4662
:101CD000FEF749FB0B950A952003099009AC3046A5
:101CE0002146FEF77BFA0C950B95049E0A96009709
:101CF000099749482146FEF771FA0C950B950A960B
:101D000002980990454821460446FEF767FA0E9569
:101D10000D950C950B950A95019509950098FF3046
:101D200081B22046019E3246FEF71DFB3C480188E9
:101D3000012539482A46FEF716FB03952846FEF78B
:101D40003BFA02E0761C042EE8D0039D2802B04046
:101D500081B200222046FEF706FB2846FEF72CFA49
:101D600005A83146FEF7CAFE0598069988424BD071
:101D70000A990B9A551A01D0AB005D1E0D9B0E9F60
:101D8000FC1800680490A54207D109A8FFF7D6FD0A
:101D90000E9F0D9BDC190B9A0A99200980000858A8
:101DA0002407A40E049D0551781C0E90052813D31A
:101DB000501A01D08000401E0E97DC19001B20280D
:101DC000164C0AD3101F0068FFF72CFF0B98001F5A
:101DD0000B900A990D9B00E0104C98190209920093
:101DE00089580007800E085880000D49095A0127BC
:101DF00009483A46FEF7B7FA0298B04081B2204649
:101E00003A46FEF7B0FA059800289BD00690FFF7F7
:101E100009FF97E71410024000040048000800483A
:101E200008000020F0B58C460B30C108C900674699
:101E30000D461E4C7F1E20E0061D3A467642036882
:101E40003240934218D39E1AAE4215D3002A07D0CF
:101E500086189B1A446818C6083E44C0041F3046C2
:101E6000AB4205D95B1B4219466848C2083A00E0FC
:101E70004268226002C003E0041D20680028DBD114
:101E8000002804D10A4A1068002801D00020F0BDC3
:101E9000064B08481860084B1B1ADB08DB00036080
:101EA0000023436001201060C1E700000000002013
:101EB00004000020440000204002002010B500284B
:101EC00023D0124B0022001F196803E0814203D87F
:101ED0000A4649680029F9D1002A0AD01368841AF1
:101EE0009C4204D1006818181060104602E050604F
:101EF00000E01860002907D002680B1A934203D152
:101F00000B68D21802604968416010BD00000020D3
:101F100000B50721FFF786FF00BD02E008C8121FC9
:101F200008C1002AFAD170477047002001E001C1C2
:101F3000121F002AFBD170470000000000000000C3
:101F4000010203040607080902030405060708093D
:101F50000A0B0C0D0E0F10100102030405060708F2
:101F6000090A0B0C0D0E0F10881F0008000000203E
:101F7000380000001A1F0008C01F000838000020A9
:101F8000080600002A1F00080000000000000000F2
:101F900000FC00000060000000DA000000F2000019
:101FA0000066000000B6000000BE000000E0000077
:101FB00000FE000000E6000000127A0000000000B1
:04000005080000C12E
:00000001FF
