:020000040800F2
:1000000040060020D50000089B1000089910000849
:1000100000000000000000000000000000000000E0
:100020000000000000000000000000009F10000819
:1000300000000000000000009D100008A110000852
:10004000E7000008E7000008E7000008E7000008F4
:10005000E7000008E7000008E7000008E7000008E4
:10006000E7000008E7000008E7000008E7000008D4
:10007000E7000008E7000008E7000008E7000008C4
:10008000E7000008E7000008E7000008E7000008B4
:10009000E7000008E7000008E7000008E7000008A4
:1000A000E7000008E7000008E7000008E700000894
:1000B000E7000008E7000008E7000008E700000884
:1000C0000348854600F0F4FA004800475D1900082F
:1000D000400600200448804704480047FEE7FEE74A
:1000E000FEE7FEE7FEE7FEE7A9100008C1000008F2
:1000F00010B5202A04DB0846203AD040002110BD6C
:100100000B46D340D0402024A21A91400843194600
:1001100010BD10B5431A934209D28318881803E022
:10012000401E01785B1E1970521EF9D210BD0346A5
:100130000B439B0703D009E008C9121F08C0042A1B
:10014000FAD203E00B780370401C491C521EF9D20E
:1001500010BDD2B201E00270401C491EFBD27047B4
:100160000022F6E710B513460A4604461946FFF783
:10017000F0FF204610BD00000EB5C217C10F504061
:10018000CA0740180021054B0293019200910A46CC
:100190000B4600F07EF803B000BD00003304000001
:1001A00070B5CD0F4A0009030123090B1B05194344
:1001B0000B4BED070024520D9A4201DA002070BD6E
:1001C000074B34339A4203DC9A1AFFF791FF02E09F
:1001D0000449511888402C43F1D0404270BD0000C2
:1001E000FF030000CDFBFFFF70B50446002903D0DC
:1001F00000202022012310E0002801D00020C0436D
:10020000C046C0460DE02546D5408D4205D30D467B
:100210009540641B1D46954040191546521E002D01
:10022000F1DC214670BD000070B5002504462E4665
:10023000002911D0002C01DA01254442002901DAFD
:10024000012649422046FFF7CFFFB54200D0404289
:10025000002D00D0494270BD002C02DA0121C907EF
:1002600002E0002C00DD03490846C046C046214696
:1002700070BD0000FFFFFF7F10B5002B08DA0024DF
:10028000401C614192185B411A4301D14008400073
:1002900010BDF0B51FB482B005460C0003D008466F
:1002A00001F084FC02E001F081FC20300246009065
:1002B0002146284600F00EFA049B059A04460F4694
:1002C00018431143084314D0184610431BD000981C
:1002D00040210A1A18460599FFF70AFF05460E46FF
:1002E000009A0599049800F0F5F9084305D001201B
:1002F00004E02046394607B0F0BD0020C117054391
:100300000E432C43374300990E986305401A790534
:10031000E40A00220C43FD0A0A3002D500200146FF
:10032000E9E70105101969410C9C0D9D001969410F
:10033000FFF7A2FFDFE70000F0B507460846584088
:1003400087B0C00F049048000E4659004008490885
:10035000BC1A884105D2384631461E4617460B4620
:1003600002465800400810434CD0300D0390400521
:100370005900400D490D0590401A0290402872DA4C
:1003800018030121000B090508430190049800920D
:10039000002805D001995242002088410092019026
:1003A000029840210A1A0199009800F093F9054635
:1003B0000C466B4607CB00F09DF9C0197141039ABA
:1003C0000E0D0023D71756401A467A40164344D0E4
:1003D000049A002A2DD0029A012A039A15DC1205EC
:1003E000C01A914101263605001C7141D20F059EAD
:1003F000D2070093019202962A462346FFF749FF4F
:1004000007B0F0BD38463146FAE71605224A0F46D6
:10041000B218C01AB74101210905001C4F4100184C
:100420007F41114618187941E20F10436D1964415C
:1004300013E0E2076D0815436408C2071443039AEA
:1004400001261205C01A91413605001C7141CE07E4
:10045000400830434908C01851412A462346FFF757
:100460000BFFCDE7FFE7049801224000C117121AE5
:1004700000238B4104983146C417381AA141EEE796
:1004800030B40124E407634030BC55E730B40124A4
:10049000E407614030BC4FE70000E0FFF0B51FB457
:1004A00088B00B990998002448400999C00F490069
:1004B00049080991C0070B990090490049080B9120
:1004C00009990898A64608431CD00B990A98084336
:1004D00018D0099801244000420D4800410D0998A8
:1004E00024050003000B204309900B980003000B28
:1004F00020430B9050181C494018002201901446CC
:10050000104605E0002001460DB0F0BD032801DAD9
:10051000034600E003239C46C11A0AAE0AE05F00CE
:1005200008ADED5B4F00F75B7D430027AA187C41C7
:10053000491C5B1E6145F2DD410004AB5A522104A7
:10054000120C0A43240C401C0828DFDB019802909F
:100550000099704601910090059B049A07990698AE
:10056000FFF797FED0E700000DFCFFFFF0B50C464B
:100570005C4085B0E40FE40703944C000026640857
:1005800059009446490802460296224321D0624609
:100590000A431ED06200570D4A000E032303550D77
:1005A000012402462C492405781B1B0B360B4018EE
:1005B00023432643614600901C46501AB44103D39E
:1005C0000098401C009002E0921800985B410028BF
:1005D00003DA0020014605B0F0BD00200121090525
:1005E0000746864611E064461D46141BB54106D3F6
:1005F0006546521BB341744607430C43A646CD07DC
:1006000040084908284392185B4105460D43EAD14A
:100610001046184313D060461946504071400843B5
:1006200006D06046101AB34106D20122002306E02C
:1006300000220123DB0702E00122D243531000987D
:1006400074460105381C6141029C039D00196941F3
:10065000FFF712FEBFE70000FD03000070B54B007E
:100660005B0803430BD04B005C0D0026334665420C
:10067000B341D417AD1AA34102DB0020014670BD7F
:1006800012053018514170BD10B5002904DB01245A
:10069000E40740428C412146002B04DB1C46012329
:1006A000DB075242A341994200D1904210BD0000A5
:1006B000064C0125064E05E0E36807CC2B430C3CB5
:1006C00098471034B442F7D3FFF7FEFC082900081E
:1006D0002829000810B5202A04DB0146203A914061
:1006E000002010BD914020239C1A0346E34019438B
:1006F000904010BD10B5202A06DBCB170846203AE3
:100700001041C1170B4306E00B461341D040202493
:10071000A21A91400843194610BDFEB500231A469F
:100720001B1A8A4103DB0020014603B0F0BD4A00DA
:100730000D0301212D0B0905520D0D43D10702D1E7
:1007400000186D41521E5110FF31FF310131002759
:1007500004463E463846009701910246012100209A
:100760000905FFF7C5FCC3197141F81832468446E4
:100770008E464A4161462846611A904104D360463C
:10078000241A954176461F46241900986D41401C55
:1007900000903428E1DDF91930467041091BA84169
:1007A00003D20022D243134601E0002213460198EF
:1007B0000105381C7141FFF75FFDB6E7B0B582B0A7
:1007C000019000F0DBF804460198451C01D300209D
:1007D000C54300F0D3F8001BA842FAD302B0B0BD65
:1007E000F0B589B00F4603465948834204D005202E
:1007F0003C68002C05D1A9E004203C68002C00D105
:10080000A4E01721C9065A180A21CA410092042AF5
:1008100000D300900120002507950390024604971D
:100820000CE02143F1603C682046D040AD1C0799A4
:10083000091D0791521C002800D187E0501E039E1D
:10084000069086403440EED00592019479681020DD
:100850000843122810D13C461C20079908400F215C
:100860008140069AD708BF00DF193A6A8A43216996
:100870008140114339626168032208461040A84054
:100880000292AA401F68974307431F60D043122972
:1008900014D801228A40304C22420FD09A6802407C
:1008A0001C46049BDF682346AF401743A7600A0934
:1008B000069CA2405F68B74317435F60DA68024056
:1008C000049FB868A8401043D860C800059AAAD50C
:1008D0004A4A1068012108431060106808400890D7
:1008E0000C20079908400F218140069C029A9443EE
:1008F000089A1A4EA2598A43009981401143A15186
:10090000144E31687868C2030CD5019C21433160D4
:10091000716882030CD4A1437160B168C2020CD427
:10092000A1430BE0019CA143316071688203F2D5C1
:1009300021437160B168C202F2D52143059AB160CA
:10094000F168800200D56CE7A1436BE709B0F0BD08
:1009500000100048000401400600060008000140A5
:1009600000690840411E88417047002A02D01822C1
:100970008150704728228150704700000448006869
:100980007047C04602480168491C01607047C04674
:100990003C00002010B58E48016810220A43026016
:1009A0000024204600F004F800F014F8204610BDA2
:1009B000B0B5044600F01CF97D21C900FFF714FC16
:1009C00000F050FB0025E84321462A4600F018F8C5
:1009D0002846B0BD82B00948016801221143016078
:1009E0000168114001910199110742680A43426070
:1009F000406808400090009802B07047181002400C
:100A0000002805D40322034693430B4A9A1806E0B4
:100A10000F220240083A03239A43084BD21880075A
:100A2000C00E8901C9B28140FF23834010689843FA
:100A3000084310607047C04600E400E01CED00E091
:100A4000F0B581B00D460446614A116801200140AD
:100A5000A94208D211680126B143294311601168E7
:100A60003140A94244D121688A0706D5594E3268DF
:100A7000F0239A43A36813433360C90721D1544933
:100A8000086801263040A84205D90868B0430860CC
:100A90000868C0072CD12078400707D5072000023E
:100AA0004C4A11688143E068084310604948046873
:100AB0002007810F4948022979D3032962D1484888
:100AC00075E06168434A032909D0121F02290BD03F
:100AD000012910D112689203064609D50FE0126B66
:100AE000D203064604D50AE012689201064606D4EF
:100AF000304601B0F0BD126892070646F8D5354A77
:100B000010680326B04308431060FFF737FF07461D
:100B10006068012822D002282DD003280CD12D484E
:100B200000680C2101400C29A9D0FFF727FFC01B4A
:100B300029498842F3D9DBE7264800680007800F7F
:100B40009DD0FFF71BFFC01B23498842F4D9CFE794
:100B5000FFF714FFC01B20498842C9D81D48006810
:100B60000C2101400429F3D189E7FFF707FFC01BDF
:100B700019498842BCD8174800680C21014008294F
:100B8000F3D17CE70321C90322460A408A4200D1FF
:100B900013481049896A0F220A401249895CFFF7FD
:100BA00023FB0146A002000F0F4A105C484309498D
:100BB00009680906090F0D4A515CC8400E490860D2
:100BC00000263046FFF7F4FE304601B0F0BDC046C7
:100BD00000200240041002408813000000127A0036
:100BE000006CDC02F8280008E8280008D828000873
:100BF000014800687047C04634000020F0B585B059
:100C000007460078C007F94E039719D071680C2089
:100C1000014004290DD071680140082900D0BDE0D1
:100C20000320C0037168014001200004814200D00C
:100C3000B4E03068800303D57868002800D110E163
:100C4000387880071ED570680007800F0CD0706858
:100C50000C210140082978D10320C00371680140AC
:100C60000120C003814270D13068800703D5F86845
:100C7000012800D0F5E03068F82188433969C900BF
:100C8000014331603878000724D43878400736D4DF
:100C90003878C00600D4BDE003984069411D00D1FA
:100CA000ACE0012800D0FBE0706B042101437163CC
:100CB000706B012101437163FFF760FE0546706BA5
:100CC000800700D59EE0FFF759FE411B0320022953
:100CD000F5D9BDE1706AF96900296BD0012108439B
:100CE0007062FFF74BFE0546706A8007CDD4FFF7B0
:100CF00045FE401B0228F7D9032005B0F0BD0120B6
:100D000002900107F0690840019006D1F06908439C
:100D1000F061F0690840049004980091CF4F386862
:100D2000C00527D402980402386820433860FFF7D2
:100D300025FE0546386820421CD1FFF71FFE401BE8
:100D40006428F7D9032005B0F0BD3068F9680029A0
:100D500042D0012108433060FFF710FE054630689D
:100D6000800788D4FFF70AFE401B0228F7D903202A
:100D700005B0F0BD03988068B94F002800D1B9E0F4
:100D8000052800D1CBE0012800D1CCE0306A0299DF
:100D900088433062306A04218843C7E078680028BD
:100DA00000D1DCE0052800D1F2E0012800D0F8E015
:100DB0000120F2E0012188437062FFF7DFFD054664
:100DC000706A800700D460E7FFF7D8FD401B022857
:100DD000F6D9032005B0F0BD012188433060FFF74C
:100DE000CDFD05463068800700D44BE7FFF7C6FD10
:100DF000401B0228F6D9032005B0F0BD706B04211A
:100E000088437063706BF821884303998969C9002E
:100E10000143716303980078800618D572680C212D
:100E20000A40012007040C2A09D072680A40082AE7
:100E30004BD10321C90372680A408A4245D1716BC4
:100E4000394204D00399096A012900D000E10398CE
:100E5000476A0022002F07D070680C210140082942
:100E600005D1012005B0F0BD104605B0F0BD0292DD
:100E7000012421063068019188433060FFF77EFD30
:100E80000546022F00D0A6E067063068384200D140
:100E9000BEE0FFF773FD411B03200229F5D9D7E01F
:100EA000706B042101437163706B0121884370638F
:100EB000FFF764FD0546706B8007ABD5FFF75EFD5D
:100EC000411B03200229F6D9C2E0706B0399096A1D
:100ED000002900D18CE038437063FFF74FFD0546D1
:100EE000706B3842B3D1FFF749FD411B0320022943
:100EF000F6D9ADE0306A029988433062306A042145
:100F000088433062FFF73AFD0546306A80071CD5FA
:100F1000FFF734FD411B0320B942F6D998E0306A4F
:100F2000042101433162306A029908433062FFF7BD
:100F300025FD0546306A800707D4FFF71FFD401BDB
:100F4000B842F7D9032005B0F0BD01980028039FEF
:100F500000D09DE6F06900998843F06198E6012091
:100F6000010432688A433260810432688A43326005
:100F70004404FFF703FD0546039F3068204200D17B
:100F80005EE6FFF7FBFC411B03206429F5D95FE017
:100F90000120810432680A4332600104306808434A
:100FA00007E00120010432688A433260810430681E
:100FB0008843306001204404FFF7E0FC05463068B8
:100FC000204200D03CE6FFF7D9FC401B6428F6D94C
:100FD000032005B0F0BD6406306820423AD0FFF728
:100FE000CDFC411B03200329F6D331E00010024061
:100FF000B8437063FFF7C2FC0546706B384200D1FE
:1010000025E7FFF7BBFC411B03200229F5D91FE0B0
:10101000F06A0F218843039A116B0143F1627B2030
:10102000C00371688143D06A0843916A01437160CB
:101030003068019908433060FFF7A0FC044630682F
:10104000384207D1FFF79AFC011B03200229F6D989
:1010500005B0F0BD029805B0F0BDC046007000407C
:1010600088130000401E010E01D00120704707497F
:10107000074A5060074803680B4003218907591845
:10108000016000209060072111607047FFFFFF00A2
:1010900010E000E020ED00E0FEE770477047704789
:1010A00080B5FFF76FFC80BD1148026801210A433B
:1010B000026042680F4B1340436002680E4B1340BE
:1010C00003608A040368934303603F221204436869
:1010D00093434360C26A0F239A43C262026B074B79
:1010E00013400363426B8A4342630021816070476F
:1010F000001002400CB8FF08FFFFF6FE2CFEFCFFBC
:10110000B0B5032823D8800001A108588746C046FF
:1011100021110008531100087F110008AB110008CD
:10112000012421033B4D2846FFF71AFC002859D023
:10113000012461032846FFF713FC00285AD0A103BD
:101140002846FFF70DFC00285CD00A2442E010205E
:10115000B0BD012529032F4C2046FFF701FC0028D4
:1011600042D069032046FFF7FBFB002844D0A903C7
:101170002046FFF7F5FB002846D00B242AE0012586
:101180002903244C2046FFF7EBFB00282ED06903EF
:101190002046FFF7E5FB002830D0A9032046FFF7E3
:1011A000DFFB002832D00C2414E001252903194C60
:1011B0002046FFF7D5FB00281AD069032046FFF729
:1011C000CFFB00281CD0A9032046FFF7C9FB00284D
:1011D0001ED00D240120C1030E48FFF7C1FB0028DB
:1011E00000D010242046B0BD0420B0BD0720B0BD03
:1011F0000E20B0BD0220B0BD0520B0BD0820B0BD9E
:101200000020B0BD0320B0BD0620B0BD0920B0BD98
:101210000F20B0BD00080048F0B585B00F46044669
:1012200000686668864201D035466CE0A068E168D7
:101230008842049714D2091A8910491CCA0F8918C8
:1012400049108F00C519821B05D0AD1A28463146BA
:10125000FEF75FFFA068C0196560A060049F52E0C0
:10126000891B01D0491000E001218A0F53D1801B56
:10127000029003200190C043CD1C039005408F00D5
:10128000384600F057FB029A4519C119002A2F462B
:101290002FD0009103991140121F02929208571CFF
:1012A000019A17402A46334612D00391334602CBA7
:1012B0002A4602C2012F0AD0716802C2022F02D14F
:1012C0003346083303E0B16802C233460C33039956
:1012D0006F1802990C290BD3196811605968516075
:1012E00099689160D968D16010331032BA42F3D155
:1012F0000099A1C421600C3C002E049F03D030460D
:1013000000F014FB65683868291F08606068001FDA
:10131000606005B0F0BDC046C046F0B585B00D4672
:1013200004468168C068814278D141CC083C86423D
:10133000049519D9301A8010401CC20F8018401033
:101340008200B71A40428D1B07D0039038463146C1
:101350002A46FEF7DEFE0398666879198000301889
:101360006060A160049D59E00290081A01D040100D
:1013700000E00120820F58D1891B019103210091C7
:10138000C943074603910F408500284600F0D2FA72
:10139000019AC3194719002A194634D0039D1540F4
:1013A000111F01918908491C009A11402A4609D051
:1013B00003920097374604CF1D4604C5012907D183
:1013C0003E460EE01D469918019A0C2A0FD21AE0EB
:1013D000726804C5022901D1083602E0B16802C56D
:1013E0000C36009F039A9918019A0C2A0BD3326885
:1013F0002A6072686A60B268AA60F268EA601036B1
:1014000010358D42F3D109C4083CA160E760029811
:101410000028049D02D000F089FAA16828680860BD
:10142000A068001DA06005B0F0BDC046C046F0B584
:1014300085B00F46044600686668864201D035468E
:101440006CE0A068E1688842049714D2091A8910F8
:10145000491CCA0F891849108F00C519821B05D075
:10146000AD1A28463146FEF754FEA068C0196560E3
:10147000A060049F52E0891B01D0491000E00121C7
:101480008A0F53D1801B029003200190C043CD1CD2
:10149000039005408F00384600F04CFA029A451937
:1014A000C119002A2F462FD0009103991140121F15
:1014B00002929208571C019A17402A46334612D0CE
:1014C0000391334602CB2A4602C2012F0AD071682B
:1014D00002C2022F02D13346083303E0B16802C2D0
:1014E00033460C3303996F1802990C290BD31968F2
:1014F00011605968516099689160D968D160103362
:101500001032BA42F3D10099A1C421600C3C002EE4
:10151000049F03D0304600F009FA65683868291F37
:1015200008606068001F606005B0F0BDC046C0463E
:10153000F0B585B00D4604468168C068814278D117
:1015400041CC083C8642049519D9301A8010401CC1
:10155000C20F801840108200B71A40428D1B07D07E
:101560000390384631462A46FEF7D3FD0398666855
:101570007919800030186060A160049D59E00290E4
:10158000081A01D0401000E00120820F58D1891BB9
:10159000019103210091C943074603910F40850043
:1015A000284600F0C7F9019AC3194719002A1946BD
:1015B00034D0039D1540111F01918908491C009AE0
:1015C00011402A4609D003920097374604CF1D46A2
:1015D00004C5012907D13E460EE01D469918019A1F
:1015E0000C2A0FD21AE0726804C5022901D108360C
:1015F00002E0B16802C50C36009F039A9918019A5F
:101600000C2A0BD332682A6072686A60B268AA60DA
:10161000F268EA60103610358D42F3D109C4083CF7
:10162000A160E76002980028049D02D000F07EF9D6
:10163000A16828680860A068001DA06005B0F0BD22
:10164000C046C046F0B58DB004460069102828D3C6
:101650001038206165682E4680CE6660A168E0681B
:10166000814200D004E12068864206975BD9301A97
:101670008010401CC20F801840108200B51A4042F2
:101680008F1B07D00590284631463A46FEF741FDAC
:1016900005986668E919800030186060A160069FAF
:1016A000E6E009CC21686268CB1A9E10083C101A4B
:1016B00083109E420BD240208A4239D000F03AF982
:1016C000089008A92046FFF728FE0DB0F0BD21467E
:1016D0000C310C91002801D0401000E00120810F56
:1016E00000D01AE18500284600F024F90890B100E6
:1016F00041180A9140190B900991402000F01AF905
:10170000079008A807A9FFF713FF6068A56885423E
:101710003CD02D1F08A82946FFF789FE6068854246
:10172000F7D1A16833E00490081A4DD040104CE086
:1017300000F000F9089008A92046FFF76DFD6568E4
:101740002E4680CE6660A168E068814200D08FE0BE
:1017500022689642069766D9B01A8010401CC20FC4
:10176000801840108200B51A40428F1B07D00590A8
:10177000284631463A46FEF7CCFC05986668E919DA
:10178000800030186060A160069F71E029460998CA
:1017900060600A98A0602068089A2260E2680B9B4B
:1017A000E36009950A9108900B92A94206D04A1B62
:1017B000121F9208D243920089180A91002801D082
:1017C00000F0B4F80DB0F0BD0120820F00D0A4E00D
:1017D000891B039103210191C943074605910F40DD
:1017E0008000029000F0A6F8C319039F02994218E6
:1017F000002F194631D002920599394005913A1FC0
:101800009108491C019F39401F4615D06E681F463C
:1018100040C7012901D108350DE0AE6840C7022953
:1018200006D10C3507E0881A049227D0401026E034
:10183000E96802C710352E46059959180C2A0BD3B2
:1018400032683A6072687A60B268BA60F268FA60C8
:10185000103610378F42F3D1029A09C4083CA160B8
:10186000E26004980028069F02D000F05FF8A168AB
:101870000F60A068001DA0600DB0F0BD0120820FB8
:101880004BD1891B039103210191C943074605915F
:101890000F408000029000F04DF8C319039F029999
:1018A0004218002F19462CD0029205993940059113
:1018B0003A1F9108491C019F39401F4610D06E689D
:1018C0001F4640C7012901D1083508E0AE6840C76E
:1018D000022901D10C3502E0E96802C710352E4615
:1018E000059959180C2A0BD332683A6072687A60ED
:1018F000B268BA60F268FA60103610378F42F3D1DE
:10190000029A09C4083CA160E26004980028069F7E
:10191000AED000F00BF8A168AAE7C046C0460000B0
:10192000014800687047C0463800002080B500F0CC
:10193000B7F980BD10B5002801D0044606E00124A7
:1019400004E0FFF7EDFF002806D08047204600F0B6
:1019500027FA0028F5D010BD002010BD96B0FFF783
:1019600019F809AC201D3021FEF7FAFB002612966B
:1019700010200D9001200C90054602200990204671
:10198000FFF73CF90896079606960720059005A8EC
:101990003146FFF755F80D960C960495E8047E49FC
:1019A0000A6802430A600A68024005920598A80482
:1019B0000A6802430A600968014005910598FF2002
:1019C0000702764839463246FEF7CFFF0F24210240
:1019D0000391734D28463246FEF7C7FF0B960A96D1
:1019E0002003099009AC28462146FEF7F9FE0C9623
:1019F0000B96049D0A950197099768482146FEF7C2
:101A0000EFFE0C960B960A9503980990644D2846B4
:101A10002146FEF7E5FE0E960D960C960B960A965D
:101A2000029609962E460198FF3081B23046029FF9
:101A30003A46FEF79AFF5B48018801245748224640
:101A4000FEF793FF04942046FEF7B8FE2EE0544EB6
:101A5000554C002F00D198E03846FEF78DFB02462A
:101A60000B460020214600F0E1F9FEF799FB014604
:101A70002846FEF7D9FB0D990818010989000A9A32
:101A800051580007800E085880004649095A012421
:101A900042482246FEF769FF0398B84081B23046BB
:101AA0002246FEF762FF7F1C042FBCD0049C20025C
:101AB000B84081B2002530462A46FEF756FF204640
:101AC000FEF77CFE3846FFF71BFB1028EBD00446E0
:101AD0000A980B990E1A01D0B1004E1E0D990E9A5C
:101AE00053189E4206D109A8FFF7ACFD0E9A0D9936
:101AF0008B180A981E09B60086591B079B0EF450D6
:101B0000521C0E92264E284CA3D20A0992008058ED
:101B10000907890E45580E9802281AD3049C0D987F
:101B20002018010989000A9A51580007800E0E58A2
:101B30002046FEF721FB02460B4600201A4900F022
:101B400075F9FEF72DFB70434519641C0E9884420D
:101B5000E5D3042800D87AE7411E0E910A9A0B9922
:101B60008A1A0F4E104C01D09200521E0D9BC018C5
:101B7000101A401C202800D26BE7081F0068FFF7EE
:101B8000D5FE0B98001F0B9063E70A212846FEF74D
:101B90004BFB08466FE7C0461410024000040048A3
:101BA000000800480C000020000024402021020C06
:101BB00001D010211046020A01D01046083902094E
:101BC00001D01046091F820801D01046891E420824
:101BD00001D0881E7047081A704700004900CA02E9
:101BE0000243100000D004204A0D01D0012210430E
:101BF000044A490D914201D102210843012800D134
:101C000005207047FF070000F0B58C460B30C10877
:101C1000C90067460D461E4C7F1E20E0061D3A4651
:101C2000764203683240934218D39E1AAE4215D3CF
:101C3000002A07D086189B1A446818C6083E44C07C
:101C4000041F3046AB4205D95B1B4219466848C2A7
:101C5000083A00E04268226002C003E0041D2068E8
:101C60000028DBD1002804D10A4A1068002801D0DE
:101C70000020F0BD064B08481860084B1B1ADB0813
:101C8000DB0003600023436001201060C1E7000017
:101C90000400002008000020440000204002002032
:101CA00010B5002823D0124B0022001F196803E052
:101CB000814203D80A4649680029F9D1002A0AD08E
:101CC0001368841A9C4204D10068181810601046EA
:101CD00002E0506000E01860002907D002680B1A8B
:101CE000934203D10B68D21802604968416010BD6D
:101CF00004000020F8B504464F1EC800083821181B
:101D000015461E46086849683A4606239A4310D08D
:101D10002A463346FEF7C2FB3A46D200083AA318D9
:101D20001A687F1E5B68FEF707FB06223B4693435B
:101D3000EED1022F23D0042F11D0062F2FD12A4607
:101D40003346FEF7ABFBE36AA26AFEF7F5FA2A46D2
:101D50003346FEF7A3FB636A226AFEF7EDFA2A46D2
:101D60003346FEF79BFBE369A269FEF7E5FA2A46D4
:101D70003346FEF793FB63692269FEF7DDFA2A46D4
:101D80003346FEF78BFBE368A268FEF7D5FA2A46D6
:101D90003346FEF783FB63682268FEF7CDFAF8BD91
:101DA00000B50721FFF730FF00BD0000002210B58D
:101DB000134610460149FEF7D9FB10BD0000F03F65
:101DC00010B5FEF7B9FA10BD002210B51346104643
:101DD0001146FEF7CBFB10BD10B50721024A0020CB
:101DE0000907FEF73BFC10BD01030000034A10B5D4
:101DF00000201107FEF732FC10BD000001FDFFFFBF
:101E000002E008C8121F08C1002AFAD170477047C3
:101E1000002001E001C1121F002AFBD17047000021
:101E2000014908607047000000000020F0B51FB4B1
:101E300094B084460C460246179D169800904900BF
:101E400068006300490840080393002A01D0012676
:101E500000E000269E19FB4BF6185B109E422BD328
:101E60006E00009F0196002F00D00127F719F54E54
:101E7000F54BBE199E421FD3009E0346F34F3343DA
:101E800009D03B469C4201D1002A04D0039B002A82
:101E900005D0012604E00020394619B0F0BD002627
:101EA0009E19EB4B9E4207D8009F019E002F00D049
:101EB0000127F6199E4207D92B4660462146169AFD
:101EC000FFF77EFF19B0F0BD0023002C29DAE14EA8
:101ED000B04226DAE04EB04201DB022321E0DB4EC5
:101EE000B0421EDBDD4E070DBE19142E09DD34276E
:101EF000BF1B009EFE400196BE40009FBE420BD01D
:101F00000FE0009F002F0CD11427BF1B0646FE4098
:101F10000196BE40864204D1019BDE07F60F0223E4
:101F20009B1B0E46164318D1002D16DA002C03D049
:101F3000022B01D0012B06D00220FFF771FFFFF723
:101F400035FF19B0F0BD0220FFF76AFFFFF72EFF43
:101F50000122D207514019B0F0BD009E002E61D180
:101F6000BC4EB04220D1BE48844201D1002A08D0E4
:101F7000B648814209DB002D10DB1698294619B0BE
:101F8000F0BD0020B14919B0F0BD002D06DA0122E4
:101F90002946D2071698514019B0F0BDB14979448D
:101FA0000868496819B0F0BDA84FB84225D1002D86
:101FB0001FDA002904D0B14212D1002A09D018E05A
:101FC000002A72D1A349E20F0020D207114319B0B1
:101FD000F0BD0020E20F0146D207114319B0F0BD59
:101FE000B14206DA234600203946FEF7BFFA19B09F
:101FF000F0BD1046214619B0F0BDB14212DA0126FB
:10200000B607B54203D1234610461946EFE3964E74
:10201000B54207D1261E05DB1046314600F0F0FB25
:1020200019B0F0BD67007F081646002A40D100298C
:102030000AD0884A914229D1002C0EDD002D1CDBEC
:102040000020114619B0F0BD022B16D0002C14D080
:10205000012B12D1002C14DB0FE0002C28DA002D0C
:1020600009DB012B03D000207A4919B0F0BD002014
:102070007E4919B0F0BD012B03D00020014619B0F4
:10208000F0BD00200121C90719B0F0BD6F4A91428F
:102090000ED1002C01DA002B17D0022B06D0002025
:1020A000C043FEF769F819B0F0BD7AE20120F8E705
:1020B000E217521C94461A4307D000220692634C42
:1020C00062465B1E1A4307D009E00120FFF7A8FE15
:1020D000FFF77AFE19B0F0BD0022614C0692644A07
:1020E00090427DDD634B644A98420ADD914202DCF6
:1020F000002D10DB25E05548814202DB002D0ADC73
:102100001FE0914202DA002D05DB1AE04F4B9942A5
:1021100023DD002D15DD0220FFF782FEFFF75CFEB8
:1021200005460E4600224B4B21460698FEF7B6F9AF
:10213000084671004908C00FC0070143284619B07E
:10214000F0BD0220FFF76CFEFFF750FE4900490882
:10215000E20FD207114319B0F0BD002230463946D4
:10216000FEF78EF9012205460E46D243FEF776FAB7
:10217000424A434BFEF78AF92A463346FEF78EF968
:102180000022394BFEF782F907462A463346019171
:1021900010461946FEF782F93A46019BFEF77EF992
:1021A0000746032007912A46334640073549FEF784
:1021B00075F901910890344A324B38460799FEF779
:1021C0006DF907460291314A314B28463146FEF7F8
:1021D00065F93A46029BFEF753F907460B4600E0C5
:1021E00013E00246079101990898FEF7A5F800252B
:1021F0000E462846019B089AFEF742F93A46079B8D
:10220000FEF744F902460B468DE1012500202D051D
:10221000A94207DA352230463946FEF71FFA06464C
:102220003420C0430A1512180C48084F10180390A8
:102230000803000B014639430491164988422BDC00
:1022400000202DE0FFFF1F00FFFF0F000000F03F08
:102250000000E0FF0000F07F0000404301FCFFFFB2
:102260000000F0BF2E0900000000E03F0000F0FF7A
:102270000000E0410000F043FFFFEF3F555555558A
:102280005555D53F4715F73FFE822B6544DF5DF876
:102290000BAE543E8E980300FE49884202DA0120BC
:1022A0000F9007E000200F900398401C03900498C3
:1022B000401B0490049909910F98F749C000794494
:1022C0000D9008184368026830460999FEF7D8F85F
:1022D0000191F249089079440D9808184368026802
:1022E00030460999FEF728F802460B460020394689
:1022F000FEF73CF907910A90019B089AFEF7CEF889
:102300001090E7480F4600257844006804990C9027
:1023100048100121490708430F99890440180121F9
:10232000C90441180491DF4979440D98081843689D
:10233000026804990C98FEF7A3F83246099BFEF751
:10234000A5F82A463B46FEF7A9F809910646284615
:102350003946049B0C9AFEF7A1F8019B089AFEF7F8
:1023600095F83246099BFEF78BF8079B0A9AFEF711
:1023700095F80F91109A00903B4610461946FEF7CB
:102380008DF806460246C8480B4607910621784458
:10239000FFF7B0FC079B32460191049010461946A6
:1023A000FEF77CF8019B049AFEF778F80191064647
:1023B0003B4628461946109AFDF7BEFF0F9B009A30
:1023C000FEF76CF83246019BFDF7B6FF2A463B4606
:1023D0000191089010461946FEF760F802460B4638
:1023E00007910A900020B149FDF7A6FF019B089ACA
:1023F000FDF7A2FF0E462A46AC4B2846FEF740F8F2
:10240000079B0A9AFEF73CF8019B089AFEF73EF8F4
:102410002A4609911290334610463946FEF73EF897
:10242000019108903B46109A09991298FEF736F8E8
:102430000746079133462A460F990098FEF72EF873
:102440003A46079BFDF778FF07460B460246079181
:1024500001990898FDF770FF0E462846019B089ADF
:10246000FEF70EF83A46079BFEF710F807460720DE
:1024700007912A46334640078D49FEF70FF8029030
:1024800000918C4A8A4B38460799FEF707F80746B1
:1024900001912A46334688488849FDF7FFFF3A46AE
:1024A000019BFDF749FF864A05467A440D981018AE
:1024B000436802682846FDF73FFF089001910398A2
:1024C000FDF75AFE0B910746019B089A0099029866
:1024D000FDF732FF7B4A05467A440D981018436891
:1024E00002682846FDF728FF3A460B9BFDF724FFBC
:1024F00000250E463A4628460B9BFDF7C1FF724A5F
:1025000007467A440D981018436802683846FDF76C
:10251000B7FF009B029AFDF7B3FF019B089AFDF7F6
:10252000B5FF02460B461799002002900F461698F9
:10253000FDF7B4FF039100903B46029A1799169855
:10254000FDF79EFF2A463346FDF7A8FF039B009A3E
:10255000FDF7F2FE07910C902A4633463946029861
:10256000FDF79CFF06460F46079B0C9AFDF7E4FE1D
:10257000564A0D46914220DB5242AA18024310D11E
:1025800032463B46FDF77CFF03910890504A514B81
:1025900007990C98FDF7D0FE039B089AFEF774F894
:1025A0001ED20220FFF73CFCFFF716FC4900490849
:1025B000E20FD207114319B0F0BD6A00464B520832
:1025C0009A420DD3454AAA18024300D0B9E53246D3
:1025D0003B46FDF755FF079B0C9AFEF755F8F5D9DA
:1025E0006A00002352083E480393110D3D4B091821
:1025F0009A4223DD01221205491CCA40521951009A
:10260000490D081838497944096813468C463749FA
:10261000C1408B4312030121120B090551181422EA
:10262000101AC1400391002D01DA4842039062461E
:1026300030463946FDF724FF06460F4632463B46F4
:1026400007990C98FDF778FE00252A46284B284666
:102650000B91FDF723FF01910890264A264B28464F
:102660000B99FDF71BFF0291009032463B4628462E
:102670000B99FDF705FF079B0C9AFDF707FF1F4A13
:102680001F4BFDF70BFF029B009AFDF755FE074617
:102690000B4637E07AB60B00860500006E05000099
:1026A000C40500001C050000E6040000000008400E
:1026B00009C7EE3FFD033ADCF5015B14E02F3EBE97
:1026C000BA0300007C0300005203000000009040A9
:1026D000FE822B654715973C00CC904000346F3F3D
:1026E00001FCFFFF0000E03FC6020000FFFF0F00FB
:1026F000432EE63F396CA80C615C20BEEF39FAFE30
:10270000422EE63F0246079101990898FDF714FE14
:102710000E460546019B089AFDF7B2FE3A46079B16
:10272000FDF7B4FE07912A4633460C901046194631
:10273000FDF7B4FE074602462F480B460B910521D4
:102740007844FFF7D7FA3A460B9BFDF7A7FE2A46D7
:102750003346FDF79BFE0746099128463146079B05
:102760000C9AFDF79BFE079B0C9AFDF7E5FD0123F4
:102770000191089000229B0738460999FDF780FED9
:1027800007910A903A4628463146099BFDF786FE96
:10279000079B0A9AFDF7EAFE019B089AFDF770FE77
:1027A0002A463346FDF76CFE0022144BFDF76EFE01
:1027B000054603980E46000581190915002911DC0C
:1027C00028463146039AFDF749FFFFF707FA042828
:1027D00001D1FFF70BFB28463146039AFDF73EFF78
:1027E000054600E031180B462A4621460698FDF7BB
:1027F00055FE19B0F0BD0000640100000000F03F7C
:10280000F8B506460C46FDF788FF051E0F4600D0BA
:102810000120014349000B484908411AC90F0DD056
:10282000002E01D0012100E000210C436100490885
:10283000401AC00F02D10120FFF7F2FA28463946AC
:10284000F8BD00000000F07F000000000000F03F35
:10285000000000000000F83F000000000000000041
:102860000000004003B8E23F00000000000000004C
:1028700006D0CF43EBFD4C3E033333333333E33FDA
:10288000FFAB6FDBB66DDB3F4D268F515555D53F06
:1028900001411DA96074D13F65DBC9934A86CD3FD4
:1028A000EF4E454A287ECA3F3E5555555555C53FC2
:1028B00093BDBE166CC166BF2CDE25AF6A56113FB4
:1028C000F16BD2C541BDBBBED0A4BE726937663EB6
:1028D00000000000000000000000000000000000F8
:1028E0000102030406070809020304050607080994
:1028F0000A0B0C0D0E0F1010010203040506070849
:10290000090A0B0C0D0E0F102829000800000020EA
:1029100038000000001E0008602900083800002070
:1029200008060000101E0008000000000000000063
:102930000000000000FC00000060000000DA000061
:1029400000F200000066000000B6000000BE0000BB
:1029500000E0000000FE000000E6000000127A0027
:04000005080000C12E
:00000001FF
